:020000040800F2
:1000000000280020D91700086117000869170008A8
:100010007117000879170008811700080000000018
:100020000000000000000000000000008917000828
:100030009517000800000000A1170008AD17000880
:1000400021180008211800082118000821180008AC
:10005000211800082118000821180008211800089C
:10006000211800082118000821180008211800088C
:10007000211800082118000821180008211800087C
:10008000211800082118000821180008211800086C
:10009000211800082118000821180008211800085C
:1000A000211800082118000821180008211800084C
:1000B000B9170008211800080000000021180008E6
:1000C00021180008000000000000000021180008AE
:1000D000000000002118000821180008000000009E
:1000E000211800082118000821180008000000004D
:1000F0000000000000000000000000000000000000
:0C01000000000000000000005FF808F1A3
:10010C0010B5054C237833B9044B13B10448AFF345
:10011C0000800123237010BDD400002000000000DB
:10012C00582E000808B5034B1BB103490348AFF325
:10013C00008008BD00000000D8000020582E0008E8
:10014C0070B54FF0FF0C4CF4E06C1CEA11541DBF61
:10015C001CEA135594EA0C0F95EA0C0F00F0DEF82C
:10016C002C4481EA030621EA4C5123EA4C5350EA11
:10017C00013518BF52EA033541F4801143F4801362
:10018C0038D0A0FB02CE4FF00005E1FB02E506F0F3
:10019C000042E0FB03E54FF00006E1FB03569CF048
:1001AC00000F18BF4EF0010EA4F1FF04B6F5007F4E
:1001BC0064F5407404D25FEA4E0E6D4146EB0606C0
:1001CC0042EAC62141EA55514FEAC52040EA5E5049
:1001DC004FEACE2EB4F1FD0C88BFBCF5E06F1ED8F3
:1001EC00BEF1004F08BF5FEA500E50F1000041EB2A
:1001FC00045170BD06F0004646EA010140EA0200D7
:10020C0081EA0301B4EB5C04C2BFD4EB0C0541EAF8
:10021C00045170BD41F480114FF0000E013C00F30D
:10022C00AB8014F1360FDEBF002001F0004170BD31
:10023C00C4F10004203C35DA0C341BDC04F114044A
:10024C00C4F1200500FA05F320FA04F001FA05F2D6
:10025C0040EA020001F0004221F0004110EBD370A3
:10026C0021FA04F642EB06015EEA430E08BF20EACF
:10027C00D37070BDC4F10C04C4F1200500FA04F372
:10028C0020FA05F001FA04F240EA020001F0004104
:10029C0010EBD37041F100015EEA430E08BF20EA77
:1002AC00D37070BDC4F1200500FA05F24EEA020EBF
:1002BC0020FA04F301FA05F243EA020321FA04F0EE
:1002CC0001F0004121FA04F220EA020000EBD370A5
:1002DC005EEA430E08BF20EAD37070BD94F0000FA5
:1002EC000FD101F00046400041EB010111F4801FD9
:1002FC0008BF013CF7D041EA060195F0000F18BF8A
:10030C00704703F00046520043EB030313F4801FC5
:10031C0008BF013DF7D043EA0603704794EA0C0F7F
:10032C000CEA135518BF95EA0C0F0CD050EA410695
:10033C0018BF52EA4306D1D181EA030101F0004112
:10034C004FF0000070BD50EA410606BF104619463A
:10035C0052EA430619D094EA0C0F02D150EA013646
:10036C0013D195EA0C0F05D152EA03361CBF104687
:10037C0019460AD181EA030101F0004141F0FE4126
:10038C0041F470014FF0000070BD41F0FE4141F4AA
:10039C00780170BD81F0004102E000BF83F00043A2
:1003AC0030B54FEA41044FEA430594EA050F08BF04
:1003BC0090EA020F1FBF54EA000C55EA020C7FEAC8
:1003CC00645C7FEA655C00F0E2804FEA5454D4EB45
:1003DC005555B8BF6D420CDD2C4480EA020281EA0F
:1003EC00030382EA000083EA010180EA020281EA47
:1003FC000303362D88BF30BD11F0004F4FEA013199
:10040C004FF4801C4CEA113102D0404261EB4101A7
:10041C0013F0004F4FEA03334CEA133302D052422D
:10042C0063EB430394EA050F00F0A780A4F10104E9
:10043C00D5F1200E0DDB02FA0EFC22FA05F2801823
:10044C0041F1000103FA0EF2801843FA05F3594109
:10045C000EE0A5F120050EF1200E012A03FA0EFC88
:10046C0028BF4CF0020C43FA05F3C01851EBE371B2
:10047C0001F0004507D54FF0000EDCF1000C7EEBCF
:10048C0000006EEB0101B1F5801F1BD3B1F5001F0D
:10049C000CD349085FEA30004FEA3C0C04F101042C
:1004AC004FEA445212F5800F80F09A80BCF1004F55
:1004BC0008BF5FEA500C50F1000041EB045141EAD7
:1004CC00050130BD5FEA4C0C404141EB0101013CA0
:1004DC0028BFB1F5801FE9D291F0000F04BF01468F
:1004EC000020B1FA81F308BF2033A3F10B03B3F161
:1004FC0020020CDA0C3208DD02F1140CC2F10C02F1
:10050C0001FA0CF021FA02F10CE002F11402D8BF4E
:10051C00C2F1200C01FA02F120FA0CFCDCBF41EA1A
:10052C000C019040E41AA2BF01EB0451294330BDE9
:10053C006FEA04041F3C1CDA0C340EDC04F11404C6
:10054C00C4F1200220FA04F001FA02F340EA03009D
:10055C0021FA04F345EA030130BDC4F10C04C4F1E3
:10056C00200220FA02F001FA04F340EA03002946C3
:10057C0030BD21FA04F0294630BD94F0000F83F40D
:10058C00801306BF81F480110134013D4EE77FEAF0
:10059C00645C18BF7FEA655C29D094EA050F08BF3C
:1005AC0090EA020F05D054EA000C04BF194610461D
:1005BC0030BD91EA030F1EBF0021002030BD5FEA61
:1005CC00545C05D14000494128BF41F0004130BD89
:1005DC0014F580043CBF01F5801130BD01F00045DD
:1005EC0045F0FE4141F470014FF0000030BD7FEA50
:1005FC00645C1ABF194610467FEA655C1CBF0B464B
:10060C00024650EA013406BF52EA033591EA030F61
:10061C0041F4002130BD00BF90F0000F04BF002159
:10062C00704730B54FF4806404F132044FF000058C
:10063C004FF0000150E700BF90F0000F04BF002105
:10064C00704730B54FF4806404F1320410F000456B
:10065C0048BF40424FF000013EE700BF42004FEA66
:10066C00E2014FEA31014FEA02701FBF12F07F43E3
:10067C0093F07F4F81F06051704732F07F4208BF9A
:10068C00704793F07F4F04BF41F40021704730B5A1
:10069C004FF4607401F0004521F000411CE700BFED
:1006AC0050EA010208BF704730B54FF000050AE070
:1006BC0050EA010208BF704730B511F0004502D571
:1006CC00404261EB41014FF4806404F132045FEA73
:1006DC00915C3FF4D8AE4FF003025FEADC0C18BF1C
:1006EC0003325FEADC0C18BF033202EBDC02C2F10E
:1006FC00200300FA03FC20FA02F001FA03FE40EAA0
:10070C000E0021FA02F11444BDE600BF4FEA41028B
:10071C0012F5001215D211D56FF47873B3EB625247
:10072C0012D94FEAC12343F0004343EA505311F06E
:10073C00004F23FA02F018BF404270474FF0000000
:10074C00704750EA013005D111F0004008BF6FF03E
:10075C00004070474FF00000704700BF80B582B07A
:10076C0002AF794B1B68013B032B00F2E38001A223
:10077C0052F823F091070008D5080008F908000882
:10078C001D090008714B1B68012B0FD16F4B002208
:10079C001A606F4B9B68184600F0B6FE6D4B1B68D9
:1007AC006D4A13606A4B9B686C4A13606C4B1B68F8
:1007BC000B3B032B7ED801A252F823F0D90700087B
:1007CC000F0800084D080008830800080123019356
:1007DC0000230093002300220021012000F06CFC78
:1007EC00604B1B68012B67D1594B5B68184600F0B6
:1007FC008BFE574B5B68594A1360594B0C221A609D
:10080C005AE00023019301230093002300220021CE
:10081C00012000F051FC534B1B68012B4ED14D4B6A
:10082C009B68184600F070FE4A4B9B684A4A13605E
:10083C00474B1B68494A1360494B0D221A603DE037
:10084C0000230193002300930123012200210020A7
:10085C0000F032FC434B1B68012B31D13D4B5B68E4
:10086C00184600F051FE3B4B5B683B4A13603C4B17
:10087C000E221A6024E0002301930023009301232D
:10088C0000220121002000F017FC364B1B68012BC5
:10089C0018D12F4B9B68184600F036FE2D4B1B6869
:1008AC002D4A13602A4B9B682C4A13602C4B0B224D
:1008BC001A6007E000BF44E000BF42E000BF40E028
:1008CC0000BF3EE000BF3CE000F030FC264B1B6854
:1008DC00012B31D10221254801F0B9FA102123480E
:1008EC0001F0B5FAFA2000F0D7FD25E000F01EFC6F
:1008FC001D4B1B68012B21D104211C4801F0A7FAC8
:10090C0020211A4801F0A3FAFA2000F0C5FD15E0E9
:10091C0000F00CFC144B1B68012B11D1082113485F
:10092C0001F095FA4021114801F091FAFA2000F0FB
:10093C00B3FD05E000BF04E000BF02E000BF00E033
:10094C0000BF00BFBD4680BDF000002000000020AD
:10095C001C00002010000020F8000020FC000020EB
:10096C00F40000208001002078010020000C0140E0
:10097C0080B582B000AF00237B6026E1974A7B688C
:10098C0013441B78022B00F0BE80022B00F3138162
:10099C00002B03D0012B00F09A800CE17B68DBB2BA
:1009AC00184600F0F9F90346002B00F006818B4A3B
:1009BC007B68134401221A707B68002B07D1884B8B
:1009CC001B680133864A136000F034F971E07B68D0
:1009DC00012B23D1824B1B68012B1FDD804B1B6825
:1009EC00023B804A52F823207D4B1B68023B02F5E8
:1009FC007A727C4941F82320794B1B68023B794A77
:100A0C0052F82330784A934253DD754B1B68023BF6
:100A1C00744A4FF47A7142F823104AE07B68022B37
:100A2C0047D100F0F1F8714B1A6813465B00134480
:100A3C005B006F4A82FB03121213DB17D31A1846A2
:100A4C00FFF7FAFD4FF000026A4BFFF779FB024605
:100A5C000B4610461946FFF759FE0346664A93604B
:100A6C00624B1B68624A82FB03129212DB17D31A89
:100A7C001846FFF7E1FD4FF000025E4BFFF760FBFD
:100A8C0002460B4610461946FFF740FE03465A4AEB
:100A9C005360564B5A68554B9B681344564A136027
:100AAC00564B0B221A60564B01221A604C4B0122FA
:100ABC001A604B4B1B68042B7FDD504B0B221A60CA
:100ACC004F4B01221A60464B01221A6075E07B687D
:100ADC00DBB2184600F060F90346002B05D13F4A03
:100AEC007B68134400221A7069E07B68DBB21846FD
:100AFC0000F06CF90346002B61D0384A7B68134434
:100B0C0002221A705BE07B68DBB2184600F044F9F5
:100B1C000346002B05D1314A7B68134400221A701E
:100B2C004FE0384A7B6813441B78012B35D17B6826
:100B3C00002B07D12A4B1B680133294A136000F0A4
:100B4C0079F825E07B68012B22D1254B1B68012B02
:100B5C001EDD234B1B68023B224A52F82320204BFC
:100B6C001B68023B02F57A721E4941F823201C4B8C
:100B7C001B68023B1B4A52F823301B4A934207DD89
:100B8C00174B1B68023B174A4FF47A7142F823103B
:100B9C001C4A7B68134400221A70114B1B68042BEF
:100BAC000FDD164B0B221A60154B01221A600C4BF1
:100BBC0001221A6005E000BF04E000BF02E000BFA4
:100BCC0000E000BF7B6801337B607B68022B7FF702
:100BDC00D5AE00BF00BF0837BD4680BD0001002068
:100BEC00F000002004000020B8820100100000205A
:100BFC00AD8BDB6800408F401C000020F40000200F
:100C0C00000000201801002080B400AF074B1B68C7
:100C1C00074A1360054B5B68054A5360034B9B689E
:100C2C00034A936000BFBD4680BC7047040000209F
:100C3C001000002080B400AF074B1B68074A1360FC
:100C4C00054B5B68054A5360034B9B68034A9360F2
:100C5C0000BFBD4680BC704710000020040000207F
:100C6C0080B582B000AF00237B607BE0414A7B689B
:100C7C0013441978404A7B6813440A461A703F4A59
:100C8C007B6852F823309BB219463D4801F0B0F80E
:100C9C0003461946374A7B6813440A461A70354A8C
:100CAC007B6813441A7834497B680B441B789A424E
:100CBC0008D1304A7B6813441978324A7B68134454
:100CCC000A461A702F4A7B6813441B78002B32D1CA
:100CDC002D4A7B6832F81330B3F57A7F0AD22A4A50
:100CEC007B6832F813300A3399B2274A7B6822F8B2
:100CFC00131034E0254A7B68134401221A70244AED
:100D0C007B6832F813300A3399B2214A7B6822F897
:100D1C0013101F4A7B6832F81330B3F5FA7F1ED3D9
:100D2C001B4A7B68002122F813101A4A7B68134473
:100D3C0001221A7013E0154A7B68134400221A70C2
:100D4C00114A7B68002122F81310124A7B68134465
:100D5C0000221A700E4A7B68002122F813107B685F
:100D6C0001337B607B68022B80DD00BF00BF08373E
:100D7C00BD4680BD2C000020300000203400002037
:100D8C000008014028000020080100200401002078
:100D9C00100100201801002080B483B000AF03467E
:100DAC00FB71FB79022B01D9002307E0FB79064A82
:100DBC00D35C002B0CBF01230023DBB218460C378D
:100DCC00BD4680BC704700BF2800002080B483B0B3
:100DDC0000AF0346FB71FB79022B01D9FF2307E01F
:100DEC00FB79064AD35C012B0CBF01230023DBB239
:100DFC0018460C37BD4680BC704700BF040100206C
:100E0C0080B483B000AF78607B680D4A82FB03121C
:100E1C009210DB17D31A0B4A93607968084B83FB4B
:100E2C0001239A10CB17D21A13469B0013445B0074
:100E3C00CA1A044BDA6000BF0C37BD4680BC704741
:100E4C00676666662001002080B483B000AF7860CE
:100E5C007B680D4A82FB03129210DB17D31A0B4AE4
:100E6C0013607968084B83FB01239A10CB17D21AB5
:100E7C0013469B0013445B00CA1A044B5A6000BF14
:100E8C000C37BD4680BC7047676666662001002043
:100E9C0080B483B000AF786039607B68184A82FBFD
:100EAC0003129210DB17D31A164A13607968144B8D
:100EBC0083FB01239A10CB17D21A13469B001344C1
:100ECC005B00CA1A0F4B5A603B680D4A82FB031237
:100EDC009210DB17D31A0B4A93603968084B83FBCB
:100EEC0001239A10CB17D21A13469B0013445B00B4
:100EFC00CA1A044BDA6000BF0C37BD4680BC704781
:100F0C00676666662001002080B584B000AF78600B
:100F1C00144A7B6852F82330BB600023FB6018E056
:100F2C00114AFB6852F8233099B2FB68C3F10603EF
:100F3C00BA6842FA03F303F00103002B0CBF012340
:100F4C000023DBB21A46094800F069FFFB68013345
:100F5C00FB60FB68062BE3DD00BF00BF1037BD460E
:100F6C0080BD00BF40000020680000200008014048
:100F7C0080B584B000AF7860144A7B6852F8233097
:100F8C00BB600023FB6018E0114AFB6852F8233069
:100F9C0099B2FB68C3F10603BA6842FA03F303F093
:100FAC000103002B0CBF01230023DBB21A460948B6
:100FBC0000F035FFFB680133FB60FB68062BE3DDBB
:100FCC0000BF00BF1037BD4680BD00BF40000020F1
:100FDC0084000020000C014080B584B000AF786024
:100FEC000023FB600CE0154AFB6852F823309BB2DF
:100FFC0001221946124800F012FFFB680133FB6016
:10100C00FB68012BEFDD7B68002B13DB7B68012B6E
:10101C0010DC0A4A7B6852F823309BB20022194636
:10102C00074800F0FCFE074A7B6852F8233018464C
:10103C00FFF76AFF00BF1037BD4680BDA00000203F
:10104C00000801402001002080B584B000AF78601A
:10105C000223FB600CE0154AFB6852F823309BB26C
:10106C0001221946124800F0DAFEFB680133FB60DE
:10107C00FB68032BEFDD7B68012B13DD7B68032BF7
:10108C0010DC0A4A7B6852F823309BB200221946C6
:10109C00074800F0C4FE074A7B6852F82330184614
:1010AC00FFF766FF00BF1037BD4680BDA0000020D3
:1010BC00000801402001002090B583B000AF044629
:1010CC00084611461A462346FB710346BB710B4674
:1010DC007B7113463B71FB791A460221124800F0D2
:1010EC009EFEBB791A4604210F4800F098FE7B79CE
:1010FC001A4608210C4800F092FE3B791A46102142
:10110C00094800F08CFE3B7E1A462021064800F070
:10111C0086FE3B7F1A464021034800F080FE00BF4C
:10112C000C37BD4690BD00BF000C014080B582B0AD
:10113C0000AF00237B600CE00A4A7B6852F8233036
:10114C009BB200221946084800F069FE7B68013307
:10115C007B607B68052BEFDD00BF00BF0837BD4609
:10116C0080BD00BFB0000020000C014080B500AF76
:10117C0000F052FB00F09EF800F024F900F0D6F8D5
:10118C00404801F0ABFA404B01221A603F4B0B2256
:10119C001A603F4B01221A600A2000F07DF90A20E8
:1011AC0000F096F90A2000F0AFF90A2000F0C8F917
:1011BC00142000F0E1F9374B1B68012B06D1FFF727
:1011CC00D7FBFFF7CBFA642000F0BAF9324B1B685F
:1011DC00012B21D1314B1B68FA3B304A1360304B49
:1011EC001B68FA3B2E4A13602C4B1B682D4A82FB62
:1011FC0003129211DB17D31A581C294B1B68294A6E
:10120C0082FB03129211DB17D31A01331946FFF735
:10121C003FFEFA2000F0B0F9234B1B68012BCAD11A
:10122C00194B1B68012B13DD174B1B681846FFF776
:10123C00E7FD154B1B68023B1C4A52F82330194A38
:10124C0082FB03129211DB17D31A1846FFF7FCFD31
:10125C00174B1B681846FFF7BFFE154B1B68023374
:10126C001846FFF7F1FE124B1B680133002B03F0FD
:10127C000103B8BF5B420E4A1360FA2000F028F954
:10128C0099E700BF30010020F0000020F40000209E
:10129C00000000208401002088010020F8000020BC
:1012AC00FC000020D34D62107C01002004000020C3
:1012BC001C01002080B590B000AF07F11803282264
:1012CC000021184601F096FD3B1D00221A605A6061
:1012DC009A60DA601A610223BB610123BB6210239E
:1012EC00FB6200237B6307F11803184600F0C8FD6E
:1012FC000346002B01D000F0C9F80F237B600023BC
:10130C00BB600023FB6000233B6100237B613B1D22
:10131C000021184601F036F80346002B01D000F0EE
:10132C00B5F800BF4037BD4680BD000080B586B023
:10133C0000AF07F1080300221A605A609A60DA6065
:10134C003B4600221A605A601D4B4FF080421A60D7
:10135C001B4B41F63F725A60194B00229A60184B96
:10136C000922DA60164B00221A61154B00229A6191
:10137C00134801F063F90346002B01D000F086F806
:10138C004FF48053BB6007F1080319460C4801F079
:10139C00E1FA0346002B01D000F078F800233B6003
:1013AC0000237B603B461946054801F0B9FC034617
:1013BC00002B01D000F06AF800BF1837BD4680BD85
:1013CC003001002080B586B000AF07F10803002281
:1013DC001A605A609A60DA60294B9B69284A43F07C
:1013EC0004039361264B9B6903F004037B607B68C9
:1013FC00234B9B69224A43F008039361204B9B6962
:10140C0003F008033B603B68002241F6DE711D4887
:10141C0000F005FD00224FF67E611B4800F0FFFC3A
:10142C0041F6DE73BB600123FB6000233B610223AA
:10143C007B6107F108031946124800F05DFB4FF67B
:10144C007E63BB600123FB6000233B6102237B6155
:10145C0007F1080319460C4800F04EFB4FF46043AB
:10146C00BB600023FB6001233B6107F108031946B5
:10147C00044800F041FB00BF1837BD4680BD00BFDB
:10148C000010024000080140000C014080B400AF85
:10149C0072B600BF00BFFDE780B483B000AF7860C8
:1014AC007B68084A82FB03129210DB17D31A064A98
:1014BC001360064B00221A6000BF0C37BD4680BC7F
:1014CC00704700BF676666668C01002078010020BB
:1014DC0080B483B000AF78607B68084A82FB03124B
:1014EC009210DB17D31A064A1360064B00221A60BF
:1014FC0000BF0C37BD4680BC704700BF6766666690
:10150C00900100207C01002080B483B000AF786093
:10151C007B68084A82FB03129210DB17D31A064A27
:10152C001360064B00221A6000BF0C37BD4680BC0E
:10153C00704700BF6766666694010020800100203A
:10154C0080B483B000AF78607B68084A82FB0312DA
:10155C009210DB17D31A064A1360064B00221A604E
:10156C0000BF0C37BD4680BC704700BF676666661F
:10157C00980100208401002080B483B000AF786013
:10158C007B68084A82FB03129210DB17D31A064AB7
:10159C001360064B00221A6000BF0C37BD4680BC9E
:1015AC00704700BF676666669C01002088010020BA
:1015BC0080B400AF294B1B68002B0BDD274B1B683D
:1015CC00013B264A1360254B1B68002B02D1244B90
:1015DC0001221A60234B1B68002B0BDD214B1B686F
:1015EC00013B204A13601F4B1B68002B02D11E4B82
:1015FC0001221A601D4B1B68002B0BDD1B4B1B685B
:10160C00013B1A4A1360194B1B68002B02D1184B73
:10161C0001221A60174B1B68002B0BDD154B1B6846
:10162C00013B144A1360134B1B68002B02D1124B65
:10163C0001221A60114B1B68002B0BDD0F4B1B6832
:10164C00013B0E4A13600D4B1B68002B02D10C4B57
:10165C0001221A6000BFBD4680BC70478C0100207F
:10166C0078010020900100207C01002094010020D2
:10167C008001002098010020840100209C010020A2
:10168C008801002080B582B000AF78607B681B6851
:10169C00B3F1804F03D1FFF78BFFFFF7E1FA00BFE7
:1016AC000837BD4680BD000080B485B000AF154B37
:1016BC009B69144A43F001039361124B9B6903F03D
:1016CC000103BB60BB680F4BDB690E4A43F08053D0
:1016DC00D3610C4BDB6903F080537B607B680A4B56
:1016EC005B68FB60FB6823F0E063FB60FB6843F026
:1016FC008063FB60044AFB68536000BF1437BD462F
:10170C0080BC7047001002400000014080B584B0DE
:10171C0000AF78607B681B68B3F1804F13D10C4B22
:10172C00DB690B4A43F00103D361094BDB6903F01E
:10173C000103FB60FB68002200211C2000F0A5F9CE
:10174C001C2000F0BEF900BF1037BD4680BD00BFA5
:10175C000010024080B400AF00BFFDE780B400AFC2
:10176C0000BFFDE780B400AF00BFFDE780B400AF61
:10177C0000BFFDE780B400AF00BFFDE780B400AF51
:10178C0000BFBD4680BC704780B400AF00BFBD46F3
:10179C0080BC704780B400AF00BFBD4680BC7047B2
:1017AC0080B500AF00F07EF800BF80BD80B500AF03
:1017BC00024800F0DFFF00BF80BD00BF30010020F9
:1017CC0080B400AF00BFBD4680BC7047FFF7F8FF88
:1017DC000B480C490C4A002302E0D458C450043383
:1017EC00C4188C42F9D3094A094C002301E0136058
:1017FC000432A242FBD301F005FBFFF7B7FC7047A4
:10180C0000000020D40000209C2E0008D4000020F2
:10181C00A4010020FEE7000080B500AF084B1B6858
:10182C00074A43F010031360032000F023F90F2044
:10183C0000F008F8FFF738FF0023184680BD00BF02
:10184C000020024080B582B000AF7860124B1A685D
:10185C00124B1B7819464FF47A73B3FBF1F3B2FBBE
:10186C00F3F3184600F03BF90346002B01D001239B
:10187C000EE07B680F2B0AD8002279684FF0FF30FE
:10188C0000F003F9064A7B681360002300E0012393
:10189C0018460837BD4680BDC8000020D000002087
:1018AC00CC00002080B400AF054B1B781A46054BCA
:1018BC001B681344034A136000BFBD4680BC7047CD
:1018CC00D0000020A001002080B400AF024B1B68A8
:1018DC001846BD4680BC7047A001002080B485B07E
:1018EC0000AF78607B6803F00703FB600C4BDB6890
:1018FC00BB60BA684FF6FF031340BB60FB681A026B
:10190C00BB68134343F0BF6343F40033BB60044A2A
:10191C00BB68D36000BF1437BD4680BC704700BFA6
:10192C0000ED00E080B400AF044BDB681B0A03F051
:10193C0007031846BD4680BC704700BF00ED00E0B1
:10194C0080B483B000AF0346FB7197F90730002BCE
:10195C000BDBFB7903F01F02064997F907305B0993
:10196C00012000FA02F241F8232000BF0C37BD46DB
:10197C0080BC704700E100E080B483B000AF034648
:10198C003960FB7197F90730002B0ADB3B68DAB240
:10199C000C4997F907301201D2B20B4483F800239B
:1019AC000AE03B68DAB20849FB7903F00F03043B09
:1019BC001201D2B20B441A7600BF0C37BD4680BC64
:1019CC00704700BF00E100E000ED00E080B489B09A
:1019DC0000AFF860B9607A60FB6803F00703FB6145
:1019EC00FB69C3F10703042B28BF0423BB61FB690C
:1019FC000433062B02D9FB69033B00E000237B6117
:101A0C004FF0FF32BB6902FA03F3DA43BB681A40AA
:101A1C007B699A404FF0FF317B6901FA03F3D9439C
:101A2C007B680B40134318462437BD4680BC704777
:101A3C0080B582B000AF78607B68013BB3F1807FEA
:101A4C0001D301230FE00A4A7B68013B53600F214D
:101A5C004FF0FF30FFF790FF054B00229A60044BCC
:101A6C0007221A60002318460837BD4680BD00BF08
:101A7C0010E000E080B582B000AF78607868FFF7C6
:101A8C002DFF00BF0837BD4680BD80B586B000AFC6
:101A9C000346B9607A60FB7300237B61FFF742FF5A
:101AAC0078617A68B9687869FFF790FF024697F910
:101ABC000F3011461846FFF75FFF00BF1837BD46C1
:101ACC0080BD80B582B000AF0346FB7197F907303B
:101ADC001846FFF735FF00BF0837BD4680BD80B5FF
:101AEC0082B000AF78607868FFF7A2FF0346184613
:101AFC000837BD4680BD000080B48BB000AF786065
:101B0C00396000237B6200233B6261E101227B6A26
:101B1C0002FA03F3FB613B681B68FA691340BB6173
:101B2C00BA69FB699A4240F050813B685B68974AFE
:101B3C0093425ED0954A934275D8954A934258D0B9
:101B4C00934A93426FD8934A934252D0914A93420C
:101B5C0069D8914A93424CD08F4A934263D88F4AAA
:101B6C00934246D08D4A93425DD8122B2AD8122B21
:101B7C0059D801A252F823F0FF1B0008D91B00080A
:101B8C00EB1B00082D1C0008331C0008331C00083C
:101B9C00331C0008331C0008331C0008331C0008DD
:101BAC00331C0008331C0008331C0008331C0008CD
:101BBC00331C0008331C0008331C0008E11B000810
:101BCC00F51B0008764A934213D02CE03B68DB6887
:101BDC003B6229E03B68DB6804333B6224E03B68F2
:101BEC00DB6808333B621FE03B68DB680C333B620D
:101BFC001AE03B689B68002B02D104233B6213E084
:101C0C003B689B68012B05D108233B627B68FA6912
:101C1C001A6109E008233B627B68FA695A6103E0A8
:101C2C0000233B6200E000BFBB69FF2B01D87B683F
:101C3C0001E07B6804337B61BB69FF2B02D87B6AB4
:101C4C009B0002E07B6A083B9B003B617B691A6846
:101C5C000F213B6901FA03F3DB431A40396A3B69F4
:101C6C0001FA03F31A437B691A603B685B6803F063
:101C7C008053002B00F0A9804A4B9B69494A43F0E2
:101C8C0001039361474B9B6903F00103BB60BB6885
:101C9C00454A7B6A9B08023352F82330FB607B6A0F
:101CAC0003F003039B000F2202FA03F3DB43FA68F1
:101CBC001340FB607B683D4A93420DD07B683C4AE5
:101CCC00934207D07B683B4A934201D1022304E044
:101CDC00032302E0012300E000237A6A02F00302EE
:101CEC0092009340FA681343FB602F497B6A9B0870
:101CFC000233FA6841F823203B685B6803F48013D5
:101D0C00002B06D02C4B9A682B49BB6913438B6074
:101D1C0006E0294B9A68BB69DB43274913408B606B
:101D2C003B685B6803F40013002B06D0224BDA6887
:101D3C002149BB691343CB6006E01F4BDA68BB69D2
:101D4C00DB431D491340CB603B685B6803F40033F5
:101D5C00002B06D0184B5A681749BB6913434B60CC
:101D6C0006E0154B5A68BB69DB43134913404B60C3
:101D7C003B685B6803F48033002B1FD00E4B1A6852
:101D8C000D49BB6913430B601FE000BF000032100C
:101D9C000000311000002210000021100000121071
:101DAC00000011100010024000000140000801402A
:101DBC00000C014000100140000401400B4B1A685C
:101DCC00BB69DB43094913400B607B6A01337B62BF
:101DDC003B681A687B6A22FA03F3002B7FF496AEF9
:101DEC0000BF00BF2C37BD4680BC704700040140CB
:101DFC0080B485B000AF78600B467B807B689A68B6
:101E0C007B881340002B02D00123FB7301E00023DD
:101E1C00FB73FB7B18461437BD4680BC704780B4FF
:101E2C0083B000AF78600B467B8013467B707B7869
:101E3C00002B03D07A887B681A6103E07B881A0434
:101E4C007B681A6100BF0C37BD4680BC704780B4FC
:101E5C0085B000AF78600B467B807B68DB68FB60ED
:101E6C007A88FB6813401A04FB68D9437B880B40C3
:101E7C001A437B681A6100BF1437BD4680BC70479B
:101E8C0080B586B000AF78607B68002B01D1012350
:101E9C0072E27B681B6803F00103002B00F0878063
:101EAC00924B5B6803F00C03042B0CD08F4B5B68DC
:101EBC0003F00C03082B12D18C4B5B6803F48033BA
:101ECC00B3F5803F0BD1894B1B6803F40033002B17
:101EDC006CD07B685B68002B68D101234CE27B687B
:101EEC005B68B3F5803F06D1804B1B687F4A43F497
:101EFC00803313602EE07B685B68002B0CD17B4B2E
:101F0C001B687A4A23F480331360784B1B68774A3A
:101F1C0023F4802313601DE07B685B68B3F5A02F6E
:101F2C000CD1724B1B68714A43F4802313606F4BC6
:101F3C001B686E4A43F4803313600BE06B4B1B68D9
:101F4C006A4A23F480331360684B1B68674A23F496
:101F5C00802313607B685B68002B13D0FFF7B4FC05
:101F6C00386108E0FFF7B0FC02463B69D31A642BDA
:101F7C0001D9032300E25D4B1B6803F40033002BF3
:101F8C00F0D014E0FFF7A0FC386108E0FFF79CFCF0
:101F9C0002463B69D31A642B01D90323ECE1534B62
:101FAC001B6803F40033002BF0D100E000BF7B680A
:101FBC001B6803F00203002B63D04C4B5B6803F0EF
:101FCC000C03002B0BD0494B5B6803F00C03082B64
:101FDC001CD1464B5B6803F48033002B16D1434B6A
:101FEC001B6803F00203002B05D07B681B69012BD7
:101FFC0001D00123C0E13D4B1B6823F0F8027B6844
:10200C005B69DB00394913430B603AE07B681B6961
:10201C00002B20D0364B01221A60FFF755FC38619B
:10202C0008E0FFF751FC02463B69D31A022B01D999
:10203C000323A1E12D4B1B6803F00203002BF0D00E
:10204C002A4B1B6823F0F8027B685B69DB0027498D
:10205C0013430B6015E0264B00221A60FFF734FC8B
:10206C00386108E0FFF730FC02463B69D31A022BBB
:10207C0001D9032380E11D4B1B6803F00203002BE5
:10208C00F0D17B681B6803F00803002B3AD07B6807
:10209C009B69002B19D0174B01221A60FFF714FC17
:1020AC00386108E0FFF710FC02463B69D31A022B9B
:1020BC0001D9032360E10D4B5B6A03F00203002B93
:1020CC00F0D0012000F09CFA1CE00A4B00221A60B0
:1020DC00FFF7FAFB38610FE0FFF7F6FB02463B69AE
:1020EC00D31A022B08D9032346E100BF001002408B
:1020FC000000424280044242924B5B6A03F00203AE
:10210C00002BE9D17B681B6803F00403002B00F063
:10211C00A6800023FB758B4BDB6903F08053002BEF
:10212C000DD1884BDB69874A43F08053D361854BD3
:10213C00DB6903F08053BB60BB680123FB75824BEA
:10214C001B6803F48073002B18D17F4B1B687E4AED
:10215C0043F480731360FFF7B7FB386108E0FFF7B7
:10216C00B3FB02463B69D31A642B01D9032303E169
:10217C00754B1B6803F48073002BF0D07B68DB6815
:10218C00012B06D16F4B1B6A6E4A43F0010313629D
:10219C002DE07B68DB68002B0CD16A4B1B6A694A0B
:1021AC0023F001031362674B1B6A664A23F0040396
:1021BC0013621CE07B68DB68052B0CD1614B1B6A3E
:1021CC00604A43F0040313625E4B1B6A5D4A43F0A2
:1021DC00010313620BE05B4B1B6A5A4A23F00103A9
:1021EC001362584B1B6A574A23F0040313627B6833
:1021FC00DB68002B15D0FFF767FB38610AE0FFF7AF
:10220C0063FB02463B69D31A41F28832934201D9EF
:10221C000323B1E04B4B1B6A03F00203002BEED0FF
:10222C0014E0FFF751FB38610AE0FFF74DFB024663
:10223C003B69D31A41F28832934201D903239BE0C4
:10224C00404B1B6A03F00203002BEED1FB7D012BEC
:10225C0005D13C4BDB693B4A23F08053D3617B684F
:10226C00DB69002B00F08780364B5B6803F00C03B6
:10227C00082B61D07B68DB69022B46D1334B0022E3
:10228C001A60FFF721FB386108E0FFF71DFB0246DF
:10229C003B69D31A022B01D903236DE0294B1B6830
:1022AC0003F00073002BF0D17B681B6AB3F5803F01
:1022BC0008D1244B5B6823F400327B689B6821496E
:1022CC0013434B601F4B5B6823F474127B68196AD1
:1022DC007B685B6A0B431B4913434B601B4B01220E
:1022EC001A60FFF7F1FA386108E0FFF7EDFA0246E1
:1022FC003B69D31A022B01D903233DE0114B1B6818
:10230C0003F00073002BF0D035E0104B00221A6064
:10231C00FFF7DAFA386108E0FFF7D6FA02463B69B4
:10232C00D31A022B01D9032326E0064B1B6803F0BA
:10233C000073002BF0D11EE07B68DB69012B07D109
:10234C00012319E00010024000700040600042427E
:10235C000B4B5B68FB60FB6803F480327B681B6A89
:10236C009A4206D1FB6803F470127B685B6A9A424E
:10237C0001D0012300E0002318461837BD4680BD6C
:10238C000010024080B584B000AF786039607B6883
:10239C00002B01D10123D0E06A4B1B6803F007032B
:1023AC003A689A4210D9674B1B6823F007026549BB
:1023BC003B6813430B60634B1B6803F007033A68DD
:1023CC009A4201D00123B8E07B681B6803F002033A
:1023DC00002B20D07B681B6803F00403002B05D076
:1023EC00594B5B68584A43F4E06353607B681B6845
:1023FC0003F00803002B05D0534B5B68524A43F49F
:10240C0060535360504B5B6823F0F0027B689B6811
:10241C004D4913434B607B681B6803F00103002B91
:10242C0040D07B685B68012B07D1474B1B6803F4DA
:10243C000033002B15D101237FE07B685B68022BF6
:10244C0007D1414B1B6803F00073002B09D101230A
:10245C0073E03D4B1B6803F00203002B01D10123F9
:10246C006BE0394B5B6823F003027B685B68364991
:10247C0013434B60FFF728FAF8600AE0FFF724FAE1
:10248C000246FB68D31A41F28832934201D90323E6
:10249C0053E02D4B5B6803F00C027B685B689B0080
:1024AC009A42EBD1274B1B6803F007033A689A4218
:1024BC0010D2244B1B6823F0070222493B681343BC
:1024CC000B60204B1B6803F007033A689A4201D05B
:1024DC00012332E07B681B6803F00403002B08D057
:1024EC00194B5B6823F4E0627B68DB681649134385
:1024FC004B607B681B6803F00803002B09D0124B60
:10250C005B6823F460527B681B69DB000E49134344
:10251C004B6000F021F802460B4B5B681B0903F083
:10252C000F030A49CB5C22FA03F3094A1360094BE7
:10253C001B681846FFF786F9002318461037BD466E
:10254C0080BD00BF0020024000100240702E000829
:10255C00C8000020CC00002080B487B000AF00235E
:10256C00FB600023BB6000237B6100237B600023A6
:10257C003B611E4B5B68FB60FB6803F00C03042B98
:10258C0002D0082B03D027E0194B3B6127E0FB68F6
:10259C009B0C03F00F03174AD35C7B60FB6803F4BE
:1025AC008033002B10D0114B5B685B0C03F00103E4
:1025BC00114AD35CBB607B680D4A03FB02F2BB681B
:1025CC00B2FBF3F37B6104E07B680C4A02FB03F380
:1025DC007B617B693B6102E0054B3B6100BF3B6962
:1025EC0018461C37BD4680BC704700BF0010024027
:1025FC0000127A00802E0008902E000800093D0081
:10260C0080B485B000AF78600A4B1B680A4AA2FB05
:10261C0003235B0A7A6802FB03F3FB6000BFFB68D1
:10262C005A1EFA60002BF9D100BF00BF1437BD460B
:10263C0080BC7047C8000020D34D621080B582B0BA
:10264C0000AF78607B68002B01D1012341E07B68EF
:10265C0093F83D30DBB2002B06D17B68002283F867
:10266C003C207868FFF752F87B68022283F83D2003
:10267C007B681A687B6804331946104600F056FADA
:10268C007B68012283F846207B68012283F83E2078
:10269C007B68012283F83F207B68012283F840206D
:1026AC007B68012283F841207B68012283F8422059
:1026BC007B68012283F843207B68012283F8442045
:1026CC007B68012283F845207B68012283F83D203A
:1026DC00002318460837BD4680BD000080B485B085
:1026EC0000AF78607B6893F83D30DBB2012B01D0F2
:1026FC00012335E07B68022283F83D207B681B6850
:10270C00DA687B681B6842F00102DA607B681B6840
:10271C00164A934209D07B681B68B3F1804F04D0F2
:10272C007B681B68124A934211D17B681B689B68BB
:10273C0003F00703FB60FB68062B10D07B681B685B
:10274C001A687B681B6842F001021A6007E07B681C
:10275C001B681A687B681B6842F001021A60002330
:10276C0018461437BD4680BC704700BF002C014092
:10277C000004004080B584B000AF78607B681B68B3
:10278C00DB68FB607B681B681B69BB60BB6803F084
:10279C000203002B20D0FB6803F00203002B1BD09C
:1027AC007B681B686FF002021A617B6801221A7742
:1027BC007B681B689B6903F00303002B03D07868CC
:1027CC0000F098F905E0786800F08BF9786800F073
:1027DC009AF97B6800221A77BB6803F00403002B7C
:1027EC0020D0FB6803F00403002B1BD07B681B6814
:1027FC006FF004021A617B6802221A777B681B68EF
:10280C009B6903F44073002B03D0786800F072F9D5
:10281C0005E0786800F065F9786800F074F97B6879
:10282C0000221A77BB6803F00803002B20D0FB684A
:10283C0003F00803002B1BD07B681B686FF00802A9
:10284C001A617B6804221A777B681B68DB6903F0CA
:10285C000303002B03D0786800F04CF905E078688E
:10286C0000F03FF9786800F04EF97B6800221A7787
:10287C00BB6803F01003002B20D0FB6803F010039F
:10288C00002B1BD07B681B686FF010021A617B68F1
:10289C0008221A777B681B68DB6903F44073002BF2
:1028AC0003D0786800F026F905E0786800F019F993
:1028BC00786800F028F97B6800221A77BB6803F06F
:1028CC000103002B0CD0FB6803F00103002B07D095
:1028DC007B681B686FF001021A617868FEF7D2FE04
:1028EC00BB6803F08003002B0CD0FB6803F0800363
:1028FC00002B07D07B681B686FF080021A61786828
:10290C0000F06FFABB6803F04003002B0CD0FB689F
:10291C0003F04003002B07D07B681B686FF040026C
:10292C001A61786800F0F8F8BB6803F02003002BFC
:10293C000CD0FB6803F02003002B07D07B681B68CE
:10294C006FF020021A61786800F042FA00BF10376D
:10295C00BD4680BD80B584B000AF7860396000237F
:10296C00FB737B6893F83C30012B01D10223B4E05C
:10297C007B68012283F83C207B68022283F83D208F
:10298C007B681B689B68BB60BB6823F07703BB60EC
:10299C00BB6823F47F43BB607B681B68BA689A6092
:1029AC003B681B68B3F5005F3ED0B3F5005F00F2E7
:1029BC008780B3F5805F00F08680B3F5805F7FD8A9
:1029CC00702B1AD0702B7BD8602B50D0602B77D803
:1029DC00502B3CD0502B73D8402B58D0402B6FD859
:1029EC00302B64D0302B6BD8202B60D0202B67D8A9
:1029FC00002B5CD0102B5AD062E07B6818683B68C7
:102A0C0099683B685A683B68DB6800F06AF97B6838
:102A1C001B689B68BB60BB6843F07703BB607B683B
:102A2C001B68BA689A604FE07B6818683B689968C5
:102A3C003B685A683B68DB6800F053F97B681B689D
:102A4C009A687B681B6842F480429A603CE07B6821
:102A5C0018683B6859683B68DB681A4600F0CAF88E
:102A6C007B681B685021184600F021F92CE07B682C
:102A7C0018683B6859683B68DB681A4600F0E8F850
:102A8C007B681B686021184600F011F91CE07B681C
:102A9C0018683B6859683B68DB681A4600F0AAF86E
:102AAC007B681B684021184600F001F90CE07B683C
:102ABC001A683B681B681946104600F0F8F803E0EA
:102ACC000123FB7300E000BF7B68012283F83D20EB
:102ADC007B68002283F83C20FB7B18461037BD46F0
:102AEC0080BD80B483B000AF786000BF0C37BD46AA
:102AFC0080BC704780B483B000AF786000BF0C37E7
:102B0C00BD4680BC704780B483B000AF786000BF16
:102B1C000C37BD4680BC704780B483B000AF786082
:102B2C0000BF0C37BD4680BC7047000080B485B038
:102B3C0000AF786039607B681B68FB607B682B4A50
:102B4C00934207D07B68B3F1804F03D07B68284A4F
:102B5C00934208D1FB6823F07003FB603B685B6811
:102B6C00FA681343FB607B68204A934207D07B686A
:102B7C00B3F1804F03D07B681D4A934208D1FB68A8
:102B8C0023F44073FB603B68DB68FA681343FB601B
:102B9C00FB6823F080023B685B691343FB607B6836
:102BAC00FA681A603B689A687B68DA623B681A6854
:102BBC007B689A627B680D4A934203D13B681A6921
:102BCC007B681A637B6801225A617B681B6903F07E
:102BDC000103002B05D07B681B6923F001027B6885
:102BEC001A6100BF1437BD4680BC7047002C0140F1
:102BFC000004004080B487B000AFF860B9607A6020
:102C0C00FB681B6A7B61FB681B6A23F00102FB6893
:102C1C001A62FB689B693B613B6923F0F0033B61E3
:102C2C007B681B013A6913433B617B6923F00A0300
:102C3C007B617A69BB6813437B61FB683A699A6173
:102C4C00FB687A691A6200BF1C37BD4680BC7047AE
:102C5C0080B487B000AFF860B9607A60FB681B6A1B
:102C6C007B61FB681B6A23F01002FB681A62FB682D
:102C7C009B693B613B6923F470433B617B681B039D
:102C8C003A6913433B617B6923F0A0037B61BB680A
:102C9C001B017A6913437B61FB683A699A61FB6893
:102CAC007A691A6200BF1C37BD4680BC704780B47D
:102CBC0085B000AF786039607B689B68FB60FB680F
:102CCC0023F07003FB603A68FB68134343F007037F
:102CDC00FB607B68FA689A6000BF1437BD4680BC05
:102CEC00704780B487B000AFF860B9607A603B6021
:102CFC00FB689B687B617B6923F47F437B613B684A
:102D0C001A027B681A43BB6813437A6913437B61CD
:102D1C00FB687A699A6000BF1C37BD4680BC70475F
:102D2C0080B485B000AF786039607B6893F83C3034
:102D3C00012B01D1022341E07B68012283F83C2066
:102D4C007B68022283F83D207B681B685B68FB6014
:102D5C007B681B689B68BB60FB6823F07003FB609F
:102D6C003B681B68FA681343FB607B681B68FA6856
:102D7C005A607B681B68144A934209D07B681B68B5
:102D8C00B3F1804F04D07B681B68104A93420CD17E
:102D9C00BB6823F08003BB603B685B68BA68134375
:102DAC00BB607B681B68BA689A607B68012283F8F9
:102DBC003D207B68002283F83C2000231846143702
:102DCC00BD4680BC704700BF002C01400004004091
:102DDC0080B483B000AF786000BF0C37BD4680BCB8
:102DEC00704780B483B000AF786000BF0C37BD462D
:102DFC0080BC704703460244934200D1704703F8ED
:102E0C00011BF9E770B500260C4D0D4C641BA4108A
:102E1C00A64209D100F01AF800260A4D0A4C641B90
:102E2C00A410A64205D170BD55F8043B9847013655
:102E3C00EEE755F8043B98470136F2E7942E00086C
:102E4C00942E0008942E0008982E0008F8B500BFA8
:102E5C00F8BC08BC9E467047F8B500BFF8BC08BC6F
:042E6C009E467047C7
:102E7000000000000000000001020304060708092A
:102E800002030405060708090A0B0C0D0E0F1010AB
:042E9000010200003B
:042E94003101000800
:042E98000D01000820
:102E9C000100000088130000D0070000B80B0000F0
:102EAC0088130000D0070000B80B00008813000046
:102EBC00D0070000B80B0000010101000101010066
:102ECC000101010000200000004000000080000013
:102EDC007E000000300000006D0000007900000052
:102EEC00330000005B0000005F0000007000000079
:102EFC007F0000007B00000040000000800000000C
:102F0C0000010000000200000004000000080000A6
:102F1C000010000000020000000400000008000087
:102F2C0000100000002000000040000000800000A5
:102F3C000200000004000000080000001000000067
:102F4C000200000004000000080000001000000057
:102F5C00200000004000000000127A001000000069
:042F6C000100000060
:04000005080017D9FF
:00000001FF
