:020000040800F2
:1000000000280020A9140008311400083914000841
:1000100041140008491400085114000800000000B1
:10002000000000000000000000000000591400085B
:100030006514000800000000711400087D14000819
:10004000F1140008F1140008F1140008F11400087C
:10005000F1140008F1140008F1140008F11400086C
:10006000F1140008F1140008F1140008F11400085C
:10007000F1140008F1140008F1140008F11400084C
:10008000F1140008F1140008F1140008F11400083C
:10009000F1140008F1140008F1140008F11400082C
:1000A000F1140008F1140008F1140008F11400081C
:1000B00089140008F114000800000000F114000881
:1000C000F11400080000000000000000F114000816
:1000D00000000000F1140008F11400080000000006
:1000E000F1140008F1140008F114000800000000E9
:1000F0000000000000000000000000000000000000
:0C01000000000000000000005FF808F1A3
:10010C0010B5054C237833B9044B13B10448AFF345
:10011C0000800123237010BDD000002000000000DF
:10012C00282B000808B5034B1BB103490348AFF358
:10013C00008008BD00000000D4000020282B00081F
:10014C0081F0004102E000BF83F0004330B54FEA7C
:10015C0041044FEA430594EA050F08BF90EA020FE9
:10016C001FBF54EA000C55EA020C7FEA645C7FEA7C
:10017C00655C00F0E2804FEA5454D4EB5555B8BF9F
:10018C006D420CDD2C4480EA020281EA030382EA10
:10019C00000083EA010180EA020281EA0303362DA2
:1001AC0088BF30BD11F0004F4FEA01314FF4801C75
:1001BC004CEA113102D0404261EB410113F0004F87
:1001CC004FEA03334CEA133302D0524263EB43033E
:1001DC0094EA050F00F0A780A4F10104D5F1200EDC
:1001EC000DDB02FA0EFC22FA05F2801841F1000137
:1001FC0003FA0EF2801843FA05F359410EE0A5F10B
:10020C0020050EF1200E012A03FA0EFC28BF4CF03B
:10021C00020C43FA05F3C01851EBE37101F00045F1
:10022C0007D54FF0000EDCF1000C7EEB00006EEBFE
:10023C000101B1F5801F1BD3B1F5001F0CD3490888
:10024C005FEA30004FEA3C0C04F101044FEA4452DF
:10025C0012F5800F80F09A80BCF1004F08BF5FEA66
:10026C00500C50F1000041EB045141EA050130BD46
:10027C005FEA4C0C404141EB0101013C28BFB1F558
:10028C00801FE9D291F0000F04BF01460020B1FAA3
:10029C0081F308BF2033A3F10B03B3F120020CDA76
:1002AC000C3208DD02F1140CC2F10C0201FA0CF054
:1002BC0021FA02F10CE002F11402D8BFC2F1200CB9
:1002CC0001FA02F120FA0CFCDCBF41EA0C0190406F
:1002DC00E41AA2BF01EB0451294330BD6FEA0404B8
:1002EC001F3C1CDA0C340EDC04F11404C4F12002A3
:1002FC0020FA04F001FA02F340EA030021FA04F3B5
:10030C0045EA030130BDC4F10C04C4F1200220FA0B
:10031C0002F001FA04F340EA0300294630BD21FA49
:10032C0004F0294630BD94F0000F83F4801306BF0F
:10033C0081F480110134013D4EE77FEA645C18BF03
:10034C007FEA655C29D094EA050F08BF90EA020F9A
:10035C0005D054EA000C04BF1946104630BD91EA92
:10036C00030F1EBF0021002030BD5FEA545C05D195
:10037C004000494128BF41F0004130BD14F58004D4
:10038C003CBF01F5801130BD01F0004545F0FE4148
:10039C0041F470014FF0000030BD7FEA645C1ABF7D
:1003AC00194610467FEA655C1CBF0B46024650EAB4
:1003BC00013406BF52EA033591EA030F41F40021E0
:1003CC0030BD00BF90F0000F04BF0021704730B566
:1003DC004FF4806404F132044FF000054FF000013B
:1003EC0050E700BF90F0000F04BF0021704730B5FC
:1003FC004FF4806404F1320410F0004548BF4042D1
:10040C004FF000013EE700BF42004FEAE2014FEA25
:10041C0031014FEA02701FBF12F07F4393F07F4F00
:10042C0081F06051704732F07F4208BF704793F003
:10043C007F4F04BF41F40021704730B54FF4607416
:10044C0001F0004521F000411CE700BF50EA010219
:10045C0008BF704730B54FF000050AE050EA0102C2
:10046C0008BF704730B511F0004502D5404261EB32
:10047C0041014FF4806404F132045FEA915C3FF473
:10048C00D8AE4FF003025FEADC0C18BF03325FEA10
:10049C00DC0C18BF033202EBDC02C2F1200300FAC1
:1004AC0003FC20FA02F001FA03FE40EA0E0021FAE6
:1004BC0002F11444BDE600BF4FEA410212F50012EE
:1004CC0015D211D56FF47873B3EB625212D94FEA8F
:1004DC00C12343F0004343EA505311F0004F23FA79
:1004EC0002F018BF404270474FF00000704750EACE
:1004FC00013005D111F0004008BF6FF0004070478B
:10050C004FF00000704700BF80B582B002AF884B3F
:10051C001B68013B032B00F2FF8001A252F823F071
:10052C003D050008B9060008DD06000801070008B3
:10053C00804B1B68002B0FD07E4B00221A607E4B29
:10054C009B68184600F048FE7C4B1B687C4A136085
:10055C00794B9B687B4A13607B4B1B680B3B032BD3
:10056C0000F2DC8001A252F823F000BF89050008DC
:10057C00CD050008190600085D0600084FF0FF3392
:10058C0001934FF0FF3300934FF0FF334FF0FF32E6
:10059C004021022000F0F0FB6C4B1B68002B7DD03F
:1005AC006A4B00221A60644B5B68184600F014FE1C
:1005BC00614B5B68634A1360634B0C221A606DE0FD
:1005CC004FF0FF3301934FF0FF3300934FF0FF33A5
:1005DC004FF0FF322021022000F0CEFB5B4B1B685A
:1005EC00002B5DD0594B00221A60544B9B68184667
:1005FC0000F0F2FD514B9B68514A13604E4B1B6847
:10060C00504A1360504B0D221A6049E04FF0FF33F3
:10061C0001934FF0FF3300934FF0FF334FF0FF3255
:10062C001021082000F0A8FB484B1B68002B39D088
:10063C00464B00221A60414B5B68184600F0CCFD1B
:10064C003E4B5B683E4A13603F4B0E221A6029E01A
:10065C004FF0FF3301934FF0FF3300934FF0FF3314
:10066C004FF0FF321021042000F086FB374B1B6843
:10067C00002B19D0354B00221A602F4B9B68184663
:10068C0000F0AAFD2D4B1B682D4A13602A4B9B686A
:10069C002C4A13602C4B0B221A6005E000BF3DE086
:1006AC0000BF3BE000BF39E000BF37E000F0B8FB13
:1006BC00274B1B68012B33D1FA2000F055FD02218A
:1006CC00244801F02CFA1021224801F028FA27E0E6
:1006DC0000F0A6FB1E4B1B68012B23D1FA2000F067
:1006EC0043FD04211B4801F01AFA2021194801F09E
:1006FC0016FA17E000F094FB154B1B68012B13D175
:10070C00FA2000F031FD0821124801F008FA4021CE
:10071C00104801F004FA07E000BF06E000BF04E057
:10072C0000BF02E000BF00E000BF00BFBD4680BDBF
:10073C00EC00002000000020140000200400002029
:10074C00F4000020F8000020F00000207C010020C4
:10075C0074010020000C014080B582B000AF002372
:10076C007B60E8E0784A7B6813441B78022B00F02E
:10077C00CC80022B00F3D580002B03D0012B00F092
:10078C00AC80CEE07B68DBB2184600F089F90346FA
:10079C00002B00F0C8806C4A7B68134401221A704D
:1007AC007B68002B05D1694B1B680133674A1360CA
:1007BC0085E07B68012B41D1644B1B68042B20D056
:1007CC00042B2BDC022B02D0032B0DD026E05F4B2D
:1007DC001B685F4A52F823205C4B1B6802F57A7247
:1007EC005B4941F8232019E0584B1B68584A52F8D2
:1007FC002320564B1B6802F57A72554941F8232089
:10080C000CE0524B1B68524A52F823204F4B1B688A
:10081C0002F57A724E4941F8232000BF4B4B1B68FE
:10082C004B4A52F823304B4A934248DD474B1B68E6
:10083C00474A4FF47A7142F8231040E07B68022B50
:10084C003DD1434B1A681346DB009B1A424A82FB8C
:10085C0003129210DB17D31A1846FFF7C3FD02469A
:10086C000B4610461946FFF727FE03463B4A93609A
:10087C00374B1A6813465B001344374A82FB03124A
:10088C009210DB17D31A1846FFF7ACFD02460B4645
:10089C0010461946FFF710FE0346304A53602C4BA6
:1008AC005A682B4B9B6813442C4A1360274B01222C
:1008BC001A602B4B0B221A602A4B01221A60234B15
:1008CC001B68042B2FDD214B01221A60244B0B22B9
:1008DC001A60244B01221A6025E0002000F0E0F899
:1008EC000346002B05D1184A7B68134400221A706A
:1008FC001BE0002000F0EEF80346002B15D0124A46
:10090C007B68134402221A700FE0002000F0C8F834
:10091C000346002B0BD10C4A7B68134400221A703F
:10092C0005E000BF04E000BF02E000BF00E000BF34
:10093C007B6801337B607B68022B7FF713AF00BFB2
:10094C0000BF0837BD4680BDFC000020EC00002035
:10095C0004000020B882010067666666140000205F
:10096C00F00000200000002080B582B000AF002312
:10097C007B607BE0414A7B6813441978404A7B6872
:10098C0013440A461A703F4A7B6852F823309BB2D4
:10099C0019463D4801F094F803461946374A7B68DE
:1009AC0013440A461A70354A7B6813441A78344942
:1009BC007B680B441B789A4208D1304A7B681344FD
:1009CC001978324A7B6813440A461A702F4A7B689E
:1009DC0013441B78002B32D12D4A7B6832F813302C
:1009EC00B3F57A7F0AD22A4A7B6832F813300A337D
:1009FC0099B2274A7B6822F8131034E0254A7B68A9
:100A0C00134401221A70244A7B6832F813300A33DB
:100A1C0099B2214A7B6822F813101F4A7B6832F87E
:100A2C001330B3F5FA7F1ED31B4A7B68002122F8E2
:100A3C0013101A4A7B68134401221A7013E0154AEA
:100A4C007B68134400221A70114A7B68002122F83B
:100A5C001310124A7B68134400221A700E4A7B68EA
:100A6C00002122F813107B6801337B607B68022B1A
:100A7C0080DD00BF00BF0837BD4680BD28000020C8
:100A8C002C00002030000020000801402400002031
:100A9C0004010020000100200C01002014010020A2
:100AAC0080B483B000AF0346FB71FB79022B01D9F4
:100ABC00002307E0FB79064AD35C002B0CBF012313
:100ACC000023DBB218460C37BD4680BC704700BF14
:100ADC002400002080B483B000AF0346FB71FB7987
:100AEC00022B01D9FF2307E0FB79064AD35C012BCB
:100AFC000CBF01230023DBB218460C37BD4680BC6B
:100B0C00704700BF0001002080B483B000AF786054
:100B1C007B680D4A82FB03129210DB17D31A0B4A27
:100B2C0093607968084B83FB01239A10CB17D21A78
:100B3C0013469B0013445B00CA1A044BDA6000BFD7
:100B4C000C37BD4680BC7047676666661C0100208A
:100B5C0080B483B000AF786039607B68184A82FB40
:100B6C0003129210DB17D31A164A13607968144BD0
:100B7C0083FB01239A10CB17D21A13469B00134404
:100B8C005B00CA1A0F4B5A603B680D4A82FB03127A
:100B9C009210DB17D31A0B4A93603968084B83FB0E
:100BAC0001239A10CB17D21A13469B0013445B00F7
:100BBC00CA1A044BDA6000BF0C37BD4680BC7047C4
:100BCC00676666661C01002080B584B000AF786053
:100BDC00144A7B6852F82330BB600023FB6018E09A
:100BEC00114AFB6852F8233099B2FB68C3F1060333
:100BFC00BA6842FA03F303F00103002B0CBF012384
:100C0C000023DBB21A46094800F071FFFB68013380
:100C1C00FB60FB68062BE3DD00BF00BF1037BD4651
:100C2C0080BD00BF3C000020640000200008014093
:100C3C0080B584B000AF7860144A7B6852F82330DA
:100C4C00BB600023FB6018E0114AFB6852F82330AC
:100C5C0099B2FB68C3F10603BA6842FA03F303F0D6
:100C6C000103002B0CBF01230023DBB21A460948F9
:100C7C0000F03DFFFB680133FB60FB68062BE3DDF6
:100C8C0000BF00BF1037BD4680BD00BF3C00002038
:100C9C0080000020000C014080B584B000AF78606B
:100CAC000023FB600CE0154AFB6852F823309BB222
:100CBC0001221946124800F01AFFFB680133FB6051
:100CCC00FB68012BEFDD7B68002B13DB7B68012BB2
:100CDC0010DC0A4A7B6852F823309BB2002219467A
:100CEC00074800F004FF074A7B6852F82330184687
:100CFC00FFF76AFF00BF1037BD4680BD9C00002087
:100D0C00000801401C01002080B584B000AF786061
:100D1C000223FB600CE0154AFB6852F823309BB2AF
:100D2C0001221946124800F0E2FEFB680133FB6019
:100D3C00FB68032BEFDD7B68012B13DD7B68032B3A
:100D4C0010DC0A4A7B6852F823309BB20022194609
:100D5C00074800F0CCFE074A7B6852F8233018464F
:100D6C00FFF766FF00BF1037BD4680BD9C0000201A
:100D7C00000801401C01002080B58CB000AFF86069
:100D8C00B9607A603B600023FB620CE0224AFB6A8C
:100D9C0052F823309BB200221946204800F0A7FEDF
:100DAC00FB6A0133FB62FB6A052BEFDDFB683B61E1
:100DBC00BB687B617B68BB613B68FB61BB6B3B6267
:100DCC00FB6B7B620023BB621FE0BB6A9B00303372
:100DDC003B4453F8203CB3F1FF3F19D0BB6A9B0056
:100DEC0030333B4453F8203C002B11D0BB6A9B00A2
:100DFC0030333B4453F8203C9BB201221946074840
:100E0C0000F075FEBB6A0133BB62BB6A052BDCDDEF
:100E1C0000BF3037BD4680BDAC000020000C014047
:100E2C0080B582B000AF00237B600CE00A4A7B687F
:100E3C0052F823309BB200221946084800F057FEA6
:100E4C007B6801337B607B68052BEFDD00BF00BF47
:100E5C000837BD4680BD00BFAC000020000C01402F
:100E6C0080B500AF00F040FB00F08CF800F012F9F8
:100E7C0000F0C4F8384801F099FA384B01221A6096
:100E8C00374B0B221A60374B01221A600A2000F0F4
:100E9C006BF90A2000F084F90A2000F09DF90A2071
:100EAC0000F0B6F9142000F0CFF92F4B1B68012B82
:100EBC0006D1FFF751FCFFF727FB642000F0A8F9DF
:100ECC002A4B1B68012B21D1294B1B68FA3B284A62
:100EDC001360284B1B68FA3B264A1360244B1B6893
:100EEC00254A82FB03129211DB17D31A581C214B93
:100EFC001B68214A82FB03129211DB17D31A0133B0
:100F0C001946FFF725FEFA2000F09EF91B4B1B68D3
:100F1C00012BCAD1114B1B68012B04D00F4B1B6842
:100F2C001846FFF7F1FD164B1B681846FFF7B4FE89
:100F3C00134B1B6802331846FFF7E6FE104B1B6879
:100F4C000133002B03F00103B8BF5B420C4A136062
:100F5C00FA2000F025F9A8E72C010020EC00002075
:100F6C00F0000020000000208001002084010020FF
:100F7C00F4000020F8000020D34D6210780100200E
:100F8C001801002080B590B000AF07F1180328229B
:100F9C000021184601F096FD3B1D00221A605A6094
:100FAC009A60DA601A610223BB610123BB621023D1
:100FBC00FB6200237B6307F11803184600F0C8FDA1
:100FCC000346002B01D000F0C9F80F237B600023EF
:100FDC00BB600023FB6000233B6100237B613B1D56
:100FEC000021184601F036F80346002B01D000F022
:100FFC00B5F800BF4037BD4680BD000080B586B057
:10100C0000AF07F1080300221A605A609A60DA6098
:10101C003B4600221A605A601D4B4FF080421A600A
:10102C001B4B41F63F725A60194B00229A60184BC9
:10103C000922DA60164B00221A61154B00229A61C4
:10104C00134801F063F90346002B01D000F086F839
:10105C004FF48053BB6007F1080319460C4801F0AC
:10106C00E1FA0346002B01D000F078F800233B6036
:10107C0000237B603B461946054801F0B9FC03464A
:10108C00002B01D000F06AF800BF1837BD4680BDB8
:10109C002C01002080B586B000AF07F108030022B8
:1010AC001A605A609A60DA60294B9B69284A43F0AF
:1010BC0004039361264B9B6903F004037B607B68FC
:1010CC00234B9B69224A43F008039361204B9B6995
:1010DC0003F008033B603B68002241F6DE711D48BB
:1010EC0000F005FD00224FF67E611B4800F0FFFC6E
:1010FC0041F6DE73BB600123FB6000233B610223DE
:10110C007B6107F108031946124800F05DFB4FF6AE
:10111C007E63BB600123FB6000233B6102237B6188
:10112C0007F1080319460C4800F04EFB4FF46043DE
:10113C00BB600023FB6001233B6107F108031946E8
:10114C00044800F041FB00BF1837BD4680BD00BF0E
:10115C000010024000080140000C014080B400AFB8
:10116C0072B600BF00BFFDE780B483B000AF7860FB
:10117C007B68084A82FB03129210DB17D31A064ACB
:10118C001360064B00221A6000BF0C37BD4680BCB2
:10119C00704700BF676666668801002074010020F6
:1011AC0080B483B000AF78607B68084A82FB03127E
:1011BC009210DB17D31A064A1360064B00221A60F2
:1011CC0000BF0C37BD4680BC704700BF67666666C3
:1011DC008C0100207801002080B483B000AF7860CF
:1011EC007B68084A82FB03129210DB17D31A064A5B
:1011FC001360064B00221A6000BF0C37BD4680BC42
:10120C00704700BF67666666900100207C01002075
:10121C0080B483B000AF78607B68084A82FB03120D
:10122C009210DB17D31A064A1360064B00221A6081
:10123C0000BF0C37BD4680BC704700BF6766666652
:10124C00940100208001002080B483B000AF78604E
:10125C007B68084A82FB03129210DB17D31A064AEA
:10126C001360064B00221A6000BF0C37BD4680BCD1
:10127C00704700BF676666669801002084010020F5
:10128C0080B400AF294B1B68002B0BDD274B1B6870
:10129C00013B264A1360254B1B68002B02D1244BC3
:1012AC0001221A60234B1B68002B0BDD214B1B68A2
:1012BC00013B204A13601F4B1B68002B02D11E4BB5
:1012CC0001221A601D4B1B68002B0BDD1B4B1B688E
:1012DC00013B1A4A1360194B1B68002B02D1184BA7
:1012EC0001221A60174B1B68002B0BDD154B1B687A
:1012FC00013B144A1360134B1B68002B02D1124B99
:10130C0001221A60114B1B68002B0BDD0F4B1B6865
:10131C00013B0E4A13600D4B1B68002B02D10C4B8A
:10132C0001221A6000BFBD4680BC704788010020B6
:10133C00740100208C010020780100209001002015
:10134C007C010020940100208001002098010020E5
:10135C008401002080B582B000AF78607B681B6888
:10136C00B3F1804F03D1FFF78BFFFFF7FDFA00BFFE
:10137C000837BD4680BD000080B485B000AF154B6A
:10138C009B69144A43F001039361124B9B6903F070
:10139C000103BB60BB680F4BDB690E4A43F0805303
:1013AC00D3610C4BDB6903F080537B607B680A4B89
:1013BC005B68FB60FB6823F0E063FB60FB6843F059
:1013CC008063FB60044AFB68536000BF1437BD4662
:1013DC0080BC7047001002400000014080B584B012
:1013EC0000AF78607B681B68B3F1804F13D10C4B56
:1013FC00DB690B4A43F00103D361094BDB6903F052
:10140C000103FB60FB68002200211C2000F0A5F901
:10141C001C2000F0BEF900BF1037BD4680BD00BFD8
:10142C000010024080B400AF00BFFDE780B400AFF5
:10143C0000BFFDE780B400AF00BFFDE780B400AF94
:10144C0000BFFDE780B400AF00BFFDE780B400AF84
:10145C0000BFBD4680BC704780B400AF00BFBD4626
:10146C0080BC704780B400AF00BFBD4680BC7047E5
:10147C0080B500AF00F07EF800BF80BD80B500AF36
:10148C00024800F0DFFF00BF80BD00BF2C01002030
:10149C0080B400AF00BFBD4680BC7047FFF7F8FFBB
:1014AC000B480C490C4A002302E0D458C4500433B6
:1014BC00C4188C42F9D3094A094C002301E013608B
:1014CC000432A242FBD301F005FBFFF7C9FC7047C5
:1014DC0000000020D00000206C2B0008D000002061
:1014EC00A0010020FEE7000080B500AF084B1B6890
:1014FC00074A43F010031360032000F023F90F2078
:10150C0000F008F8FFF738FF0023184680BD00BF35
:10151C000020024080B582B000AF7860124B1A6890
:10152C00124B1B7819464FF47A73B3FBF1F3B2FBF1
:10153C00F3F3184600F03BF90346002B01D00123CE
:10154C000EE07B680F2B0AD8002279684FF0FF3031
:10155C0000F003F9064A7B681360002300E00123C6
:10156C0018460837BD4680BDC4000020CC000020C2
:10157C00C800002080B400AF054B1B781A46054B01
:10158C001B681344034A136000BFBD4680BC704700
:10159C00CC0000209C01002080B400AF024B1B68E3
:1015AC001846BD4680BC70479C01002080B485B0B5
:1015BC0000AF78607B6803F00703FB600C4BDB68C3
:1015CC00BB60BA684FF6FF031340BB60FB681A029E
:1015DC00BB68134343F0BF6343F40033BB60044A5E
:1015EC00BB68D36000BF1437BD4680BC704700BFDA
:1015FC0000ED00E080B400AF044BDB681B0A03F085
:10160C0007031846BD4680BC704700BF00ED00E0E4
:10161C0080B483B000AF0346FB7197F90730002B01
:10162C000BDBFB7903F01F02064997F907305B09C6
:10163C00012000FA02F241F8232000BF0C37BD460E
:10164C0080BC704700E100E080B483B000AF03467B
:10165C003960FB7197F90730002B0ADB3B68DAB273
:10166C000C4997F907301201D2B20B4483F80023CE
:10167C000AE03B68DAB20849FB7903F00F03043B3C
:10168C001201D2B20B441A7600BF0C37BD4680BC97
:10169C00704700BF00E100E000ED00E080B489B0CD
:1016AC0000AFF860B9607A60FB6803F00703FB6178
:1016BC00FB69C3F10703042B28BF0423BB61FB693F
:1016CC000433062B02D9FB69033B00E000237B614A
:1016DC004FF0FF32BB6902FA03F3DA43BB681A40DE
:1016EC007B699A404FF0FF317B6901FA03F3D943D0
:1016FC007B680B40134318462437BD4680BC7047AB
:10170C0080B582B000AF78607B68013BB3F1807F1D
:10171C0001D301230FE00A4A7B68013B53600F2180
:10172C004FF0FF30FFF790FF054B00229A60044BFF
:10173C0007221A60002318460837BD4680BD00BF3B
:10174C0010E000E080B582B000AF78607868FFF7F9
:10175C002DFF00BF0837BD4680BD80B586B000AFF9
:10176C000346B9607A60FB7300237B61FFF742FF8D
:10177C0078617A68B9687869FFF790FF024697F943
:10178C000F3011461846FFF75FFF00BF1837BD46F4
:10179C0080BD80B582B000AF0346FB7197F907306E
:1017AC001846FFF735FF00BF0837BD4680BD80B532
:1017BC0082B000AF78607868FFF7A2FF0346184646
:1017CC000837BD4680BD000080B48BB000AF786098
:1017DC00396000237B6200233B6261E101227B6A5A
:1017EC0002FA03F3FB613B681B68FA691340BB61A7
:1017FC00BA69FB699A4240F050813B685B68974A32
:10180C0093425ED0954A934275D8954A934258D0EC
:10181C00934A93426FD8934A934252D0914A93423F
:10182C0069D8914A93424CD08F4A934263D88F4ADD
:10183C00934246D08D4A93425DD8122B2AD8122B54
:10184C0059D801A252F823F0CF180008A9180008A3
:10185C00BB180008FD18000803190008031900083C
:10186C0003190008031900080319000803190008DC
:10187C0003190008031900080319000803190008CC
:10188C00031900080319000803190008B11800080F
:10189C00C5180008764A934213D02CE03B68DB68ED
:1018AC003B6229E03B68DB6804333B6224E03B6825
:1018BC00DB6808333B621FE03B68DB680C333B6240
:1018CC001AE03B689B68002B02D104233B6213E0B7
:1018DC003B689B68012B05D108233B627B68FA6946
:1018EC001A6109E008233B627B68FA695A6103E0DC
:1018FC0000233B6200E000BFBB69FF2B01D87B6873
:10190C0001E07B6804337B61BB69FF2B02D87B6AE7
:10191C009B0002E07B6A083B9B003B617B691A6879
:10192C000F213B6901FA03F3DB431A40396A3B6927
:10193C0001FA03F31A437B691A603B685B6803F096
:10194C008053002B00F0A9804A4B9B69494A43F015
:10195C0001039361474B9B6903F00103BB60BB68B8
:10196C00454A7B6A9B08023352F82330FB607B6A42
:10197C0003F003039B000F2202FA03F3DB43FA6824
:10198C001340FB607B683D4A93420DD07B683C4A18
:10199C00934207D07B683B4A934201D1022304E077
:1019AC00032302E0012300E000237A6A02F0030221
:1019BC0092009340FA681343FB602F497B6A9B08A3
:1019CC000233FA6841F823203B685B6803F4801308
:1019DC00002B06D02C4B9A682B49BB6913438B60A8
:1019EC0006E0294B9A68BB69DB43274913408B609F
:1019FC003B685B6803F40013002B06D0224BDA68BB
:101A0C002149BB691343CB6006E01F4BDA68BB6905
:101A1C00DB431D491340CB603B685B6803F4003328
:101A2C00002B06D0184B5A681749BB6913434B60FF
:101A3C0006E0154B5A68BB69DB43134913404B60F6
:101A4C003B685B6803F48033002B1FD00E4B1A6885
:101A5C000D49BB6913430B601FE000BF000032103F
:101A6C0000003110000022100000211000001210A4
:101A7C00000011100010024000000140000801405D
:101A8C00000C014000100140000401400B4B1A688F
:101A9C00BB69DB43094913400B607B6A01337B62F2
:101AAC003B681A687B6A22FA03F3002B7FF496AE2C
:101ABC0000BF00BF2C37BD4680BC704700040140FE
:101ACC0080B485B000AF78600B467B807B689A68E9
:101ADC007B881340002B02D00123FB7301E0002311
:101AEC00FB73FB7B18461437BD4680BC704780B433
:101AFC0083B000AF78600B467B8013467B707B789D
:101B0C00002B03D07A887B681A6103E07B881A0467
:101B1C007B681A6100BF0C37BD4680BC704780B42F
:101B2C0085B000AF78600B467B807B68DB68FB6020
:101B3C007A88FB6813401A04FB68D9437B880B40F6
:101B4C001A437B681A6100BF1437BD4680BC7047CE
:101B5C0080B586B000AF78607B68002B01D1012383
:101B6C0072E27B681B6803F00103002B00F0878096
:101B7C00924B5B6803F00C03042B0CD08F4B5B680F
:101B8C0003F00C03082B12D18C4B5B6803F48033ED
:101B9C00B3F5803F0BD1894B1B6803F40033002B4A
:101BAC006CD07B685B68002B68D101234CE27B68AE
:101BBC005B68B3F5803F06D1804B1B687F4A43F4CA
:101BCC00803313602EE07B685B68002B0CD17B4B61
:101BDC001B687A4A23F480331360784B1B68774A6E
:101BEC0023F4802313601DE07B685B68B3F5A02FA2
:101BFC000CD1724B1B68714A43F4802313606F4BFA
:101C0C001B686E4A43F4803313600BE06B4B1B680C
:101C1C006A4A23F480331360684B1B68674A23F4C9
:101C2C00802313607B685B68002B13D0FFF7B4FC38
:101C3C00386108E0FFF7B0FC02463B69D31A642B0D
:101C4C0001D9032300E25D4B1B6803F40033002B26
:101C5C00F0D014E0FFF7A0FC386108E0FFF79CFC23
:101C6C0002463B69D31A642B01D90323ECE1534B95
:101C7C001B6803F40033002BF0D100E000BF7B683D
:101C8C001B6803F00203002B63D04C4B5B6803F022
:101C9C000C03002B0BD0494B5B6803F00C03082B97
:101CAC001CD1464B5B6803F48033002B16D1434B9D
:101CBC001B6803F00203002B05D07B681B69012B0A
:101CCC0001D00123C0E13D4B1B6823F0F8027B6877
:101CDC005B69DB00394913430B603AE07B681B6995
:101CEC00002B20D0364B01221A60FFF755FC3861CF
:101CFC0008E0FFF751FC02463B69D31A022B01D9CD
:101D0C000323A1E12D4B1B6803F00203002BF0D041
:101D1C002A4B1B6823F0F8027B685B69DB002749C0
:101D2C0013430B6015E0264B00221A60FFF734FCBE
:101D3C00386108E0FFF730FC02463B69D31A022BEE
:101D4C0001D9032380E11D4B1B6803F00203002B18
:101D5C00F0D17B681B6803F00803002B3AD07B683A
:101D6C009B69002B19D0174B01221A60FFF714FC4A
:101D7C00386108E0FFF710FC02463B69D31A022BCE
:101D8C0001D9032360E10D4B5B6A03F00203002BC6
:101D9C00F0D0012000F09CFA1CE00A4B00221A60E3
:101DAC00FFF7FAFB38610FE0FFF7F6FB02463B69E1
:101DBC00D31A022B08D9032346E100BF00100240BE
:101DCC000000424280044242924B5B6A03F00203E1
:101DDC00002BE9D17B681B6803F00403002B00F097
:101DEC00A6800023FB758B4BDB6903F08053002B23
:101DFC000DD1884BDB69874A43F08053D361854B07
:101E0C00DB6903F08053BB60BB680123FB75824B1D
:101E1C001B6803F48073002B18D17F4B1B687E4A20
:101E2C0043F480731360FFF7B7FB386108E0FFF7EA
:101E3C00B3FB02463B69D31A642B01D9032303E19C
:101E4C00754B1B6803F48073002BF0D07B68DB6848
:101E5C00012B06D16F4B1B6A6E4A43F001031362D0
:101E6C002DE07B68DB68002B0CD16A4B1B6A694A3E
:101E7C0023F001031362674B1B6A664A23F00403C9
:101E8C0013621CE07B68DB68052B0CD1614B1B6A71
:101E9C00604A43F0040313625E4B1B6A5D4A43F0D5
:101EAC00010313620BE05B4B1B6A5A4A23F00103DC
:101EBC001362584B1B6A574A23F0040313627B6866
:101ECC00DB68002B15D0FFF767FB38610AE0FFF7E2
:101EDC0063FB02463B69D31A41F28832934201D923
:101EEC000323B1E04B4B1B6A03F00203002BEED033
:101EFC0014E0FFF751FB38610AE0FFF74DFB024697
:101F0C003B69D31A41F28832934201D903239BE0F7
:101F1C00404B1B6A03F00203002BEED1FB7D012B1F
:101F2C0005D13C4BDB693B4A23F08053D3617B6882
:101F3C00DB69002B00F08780364B5B6803F00C03E9
:101F4C00082B61D07B68DB69022B46D1334B002216
:101F5C001A60FFF721FB386108E0FFF71DFB024612
:101F6C003B69D31A022B01D903236DE0294B1B6863
:101F7C0003F00073002BF0D17B681B6AB3F5803F34
:101F8C0008D1244B5B6823F400327B689B682149A1
:101F9C0013434B601F4B5B6823F474127B68196A04
:101FAC007B685B6A0B431B4913434B601B4B012241
:101FBC001A60FFF7F1FA386108E0FFF7EDFA024614
:101FCC003B69D31A022B01D903233DE0114B1B684B
:101FDC0003F00073002BF0D035E0104B00221A6098
:101FEC00FFF7DAFA386108E0FFF7D6FA02463B69E8
:101FFC00D31A022B01D9032326E0064B1B6803F0EE
:10200C000073002BF0D11EE07B68DB69012B07D13C
:10201C00012319E0001002400070004060004242B1
:10202C000B4B5B68FB60FB6803F480327B681B6ABC
:10203C009A4206D1FB6803F470127B685B6A9A4281
:10204C0001D0012300E0002318461837BD4680BD9F
:10205C000010024080B584B000AF786039607B68B6
:10206C00002B01D10123D0E06A4B1B6803F007035E
:10207C003A689A4210D9674B1B6823F007026549EE
:10208C003B6813430B60634B1B6803F007033A6810
:10209C009A4201D00123B8E07B681B6803F002036D
:1020AC00002B20D07B681B6803F00403002B05D0A9
:1020BC00594B5B68584A43F4E06353607B681B6878
:1020CC0003F00803002B05D0534B5B68524A43F4D2
:1020DC0060535360504B5B6823F0F0027B689B6845
:1020EC004D4913434B607B681B6803F00103002BC5
:1020FC0040D07B685B68012B07D1474B1B6803F40E
:10210C000033002B15D101237FE07B685B68022B29
:10211C0007D1414B1B6803F00073002B09D101233D
:10212C0073E03D4B1B6803F00203002B01D101232C
:10213C006BE0394B5B6823F003027B685B683649C4
:10214C0013434B60FFF728FAF8600AE0FFF724FA14
:10215C000246FB68D31A41F28832934201D9032319
:10216C0053E02D4B5B6803F00C027B685B689B00B3
:10217C009A42EBD1274B1B6803F007033A689A424B
:10218C0010D2244B1B6823F0070222493B681343EF
:10219C000B60204B1B6803F007033A689A4201D08E
:1021AC00012332E07B681B6803F00403002B08D08A
:1021BC00194B5B6823F4E0627B68DB6816491343B8
:1021CC004B607B681B6803F00803002B09D0124B93
:1021DC005B6823F460527B681B69DB000E49134378
:1021EC004B6000F021F802460B4B5B681B0903F0B7
:1021FC000F030A49CB5C22FA03F3094A1360094B1B
:10220C001B681846FFF786F9002318461037BD46A1
:10221C0080BD00BF0020024000100240402B00088F
:10222C00C4000020C800002080B487B000AF002399
:10223C00FB600023BB6000237B6100237B600023D9
:10224C003B611E4B5B68FB60FB6803F00C03042BCB
:10225C0002D0082B03D027E0194B3B6127E0FB6829
:10226C009B0C03F00F03174AD35C7B60FB6803F4F1
:10227C008033002B10D0114B5B685B0C03F0010317
:10228C00114AD35CBB607B680D4A03FB02F2BB684E
:10229C00B2FBF3F37B6104E07B680C4A02FB03F3B3
:1022AC007B617B693B6102E0054B3B6100BF3B6995
:1022BC0018461C37BD4680BC704700BF001002405A
:1022CC0000127A00502B0008602B000800093D001A
:1022DC0080B485B000AF78600A4B1B680A4AA2FB39
:1022EC0003235B0A7A6802FB03F3FB6000BFFB6805
:1022FC005A1EFA60002BF9D100BF00BF1437BD463F
:10230C0080BC7047C4000020D34D621080B582B0F1
:10231C0000AF78607B68002B01D1012341E07B6822
:10232C0093F83D30DBB2002B06D17B68002283F89A
:10233C003C207868FFF752F87B68022283F83D2036
:10234C007B681A687B6804331946104600F056FA0D
:10235C007B68012283F846207B68012283F83E20AB
:10236C007B68012283F83F207B68012283F84020A0
:10237C007B68012283F841207B68012283F842208C
:10238C007B68012283F843207B68012283F8442078
:10239C007B68012283F845207B68012283F83D206D
:1023AC00002318460837BD4680BD000080B485B0B8
:1023BC0000AF78607B6893F83D30DBB2012B01D025
:1023CC00012335E07B68022283F83D207B681B6883
:1023DC00DA687B681B6842F00102DA607B681B6874
:1023EC00164A934209D07B681B68B3F1804F04D026
:1023FC007B681B68124A934211D17B681B689B68EF
:10240C0003F00703FB60FB68062B10D07B681B688E
:10241C001A687B681B6842F001021A6007E07B684F
:10242C001B681A687B681B6842F001021A60002363
:10243C0018461437BD4680BC704700BF002C0140C5
:10244C000004004080B584B000AF78607B681B68E6
:10245C00DB68FB607B681B681B69BB60BB6803F0B7
:10246C000203002B20D0FB6803F00203002B1BD0CF
:10247C007B681B686FF002021A617B6801221A7775
:10248C007B681B689B6903F00303002B03D07868FF
:10249C0000F098F905E0786800F08BF9786800F0A6
:1024AC009AF97B6800221A77BB6803F00403002BAF
:1024BC0020D0FB6803F00403002B1BD07B681B6847
:1024CC006FF004021A617B6802221A777B681B6822
:1024DC009B6903F44073002B03D0786800F072F909
:1024EC0005E0786800F065F9786800F074F97B68AD
:1024FC0000221A77BB6803F00803002B20D0FB687E
:10250C0003F00803002B1BD07B681B686FF00802DC
:10251C001A617B6804221A777B681B68DB6903F0FD
:10252C000303002B03D0786800F04CF905E07868C1
:10253C0000F03FF9786800F04EF97B6800221A77BA
:10254C00BB6803F01003002B20D0FB6803F01003D2
:10255C00002B1BD07B681B686FF010021A617B6824
:10256C0008221A777B681B68DB6903F44073002B25
:10257C0003D0786800F026F905E0786800F019F9C6
:10258C00786800F028F97B6800221A77BB6803F0A2
:10259C000103002B0CD0FB6803F00103002B07D0C8
:1025AC007B681B686FF001021A617868FEF7D2FE37
:1025BC00BB6803F08003002B0CD0FB6803F0800396
:1025CC00002B07D07B681B686FF080021A6178685B
:1025DC0000F06FFABB6803F04003002B0CD0FB68D3
:1025EC0003F04003002B07D07B681B686FF04002A0
:1025FC001A61786800F0F8F8BB6803F02003002B30
:10260C000CD0FB6803F02003002B07D07B681B6801
:10261C006FF020021A61786800F042FA00BF1037A0
:10262C00BD4680BD80B584B000AF786039600023B2
:10263C00FB737B6893F83C30012B01D10223B4E08F
:10264C007B68012283F83C207B68022283F83D20C2
:10265C007B681B689B68BB60BB6823F07703BB601F
:10266C00BB6823F47F43BB607B681B68BA689A60C5
:10267C003B681B68B3F5005F3ED0B3F5005F00F21A
:10268C008780B3F5805F00F08680B3F5805F7FD8DC
:10269C00702B1AD0702B7BD8602B50D0602B77D836
:1026AC00502B3CD0502B73D8402B58D0402B6FD88C
:1026BC00302B64D0302B6BD8202B60D0202B67D8DC
:1026CC00002B5CD0102B5AD062E07B6818683B68FA
:1026DC0099683B685A683B68DB6800F06AF97B686C
:1026EC001B689B68BB60BB6843F07703BB607B686F
:1026FC001B68BA689A604FE07B6818683B689968F9
:10270C003B685A683B68DB6800F053F97B681B68D0
:10271C009A687B681B6842F480429A603CE07B6854
:10272C0018683B6859683B68DB681A4600F0CAF8C1
:10273C007B681B685021184600F021F92CE07B685F
:10274C0018683B6859683B68DB681A4600F0E8F883
:10275C007B681B686021184600F011F91CE07B684F
:10276C0018683B6859683B68DB681A4600F0AAF8A1
:10277C007B681B684021184600F001F90CE07B686F
:10278C001A683B681B681946104600F0F8F803E01D
:10279C000123FB7300E000BF7B68012283F83D201E
:1027AC007B68002283F83C20FB7B18461037BD4623
:1027BC0080BD80B483B000AF786000BF0C37BD46DD
:1027CC0080BC704780B483B000AF786000BF0C371A
:1027DC00BD4680BC704780B483B000AF786000BF4A
:1027EC000C37BD4680BC704780B483B000AF7860B6
:1027FC0000BF0C37BD4680BC7047000080B485B06C
:10280C0000AF786039607B681B68FB607B682B4A83
:10281C00934207D07B68B3F1804F03D07B68284A82
:10282C00934208D1FB6823F07003FB603B685B6844
:10283C00FA681343FB607B68204A934207D07B689D
:10284C00B3F1804F03D07B681D4A934208D1FB68DB
:10285C0023F44073FB603B68DB68FA681343FB604E
:10286C00FB6823F080023B685B691343FB607B6869
:10287C00FA681A603B689A687B68DA623B681A6887
:10288C007B689A627B680D4A934203D13B681A6954
:10289C007B681A637B6801225A617B681B6903F0B1
:1028AC000103002B05D07B681B6923F001027B68B8
:1028BC001A6100BF1437BD4680BC7047002C014024
:1028CC000004004080B487B000AFF860B9607A6053
:1028DC00FB681B6A7B61FB681B6A23F00102FB68C7
:1028EC001A62FB689B693B613B6923F0F0033B6117
:1028FC007B681B013A6913433B617B6923F00A0334
:10290C007B617A69BB6813437B61FB683A699A61A6
:10291C00FB687A691A6200BF1C37BD4680BC7047E1
:10292C0080B487B000AFF860B9607A60FB681B6A4E
:10293C007B61FB681B6A23F01002FB681A62FB6860
:10294C009B693B613B6923F470433B617B681B03D0
:10295C003A6913433B617B6923F0A0037B61BB683D
:10296C001B017A6913437B61FB683A699A61FB68C6
:10297C007A691A6200BF1C37BD4680BC704780B4B0
:10298C0085B000AF786039607B689B68FB60FB6842
:10299C0023F07003FB603A68FB68134343F00703B2
:1029AC00FB607B68FA689A6000BF1437BD4680BC38
:1029BC00704780B487B000AFF860B9607A603B6054
:1029CC00FB689B687B617B6923F47F437B613B687D
:1029DC001A027B681A43BB6813437A6913437B6101
:1029EC00FB687A699A6000BF1C37BD4680BC704793
:1029FC0080B485B000AF786039607B6893F83C3068
:102A0C00012B01D1022341E07B68012283F83C2099
:102A1C007B68022283F83D207B681B685B68FB6047
:102A2C007B681B689B68BB60FB6823F07003FB60D2
:102A3C003B681B68FA681343FB607B681B68FA6889
:102A4C005A607B681B68144A934209D07B681B68E8
:102A5C00B3F1804F04D07B681B68104A93420CD1B1
:102A6C00BB6823F08003BB603B685B68BA681343A8
:102A7C00BB607B681B68BA689A607B68012283F82C
:102A8C003D207B68002283F83C2000231846143735
:102A9C00BD4680BC704700BF002C014000040040C4
:102AAC0080B483B000AF786000BF0C37BD4680BCEB
:102ABC00704780B483B000AF786000BF0C37BD4660
:102ACC0080BC704703460244934200D1704703F820
:102ADC00011BF9E770B500260C4D0D4C641BA410BE
:102AEC00A64209D100F01AF800260A4D0A4C641BC4
:102AFC00A410A64205D170BD55F8043B9847013689
:102B0C00EEE755F8043B98470136F2E7642B0008D2
:102B1C00642B0008642B0008682B0008F8B500BF74
:102B2C00F8BC08BC9E467047F8B500BFF8BC08BCA2
:042B3C009E467047FA
:102B4000000000000000000001020304060708095D
:102B500002030405060708090A0B0C0D0E0F1010DE
:042B6000010200006E
:042B64003101000833
:042B68000D01000853
:102B6C000100000088130000D0070000B80B000023
:102B7C000000000088130000D0070000B80B000014
:102B8C000000000001010100010101000101010030
:102B9C000020000000400000008000007E000000CB
:102BAC00300000006D0000007900000033000000D0
:102BBC005B0000005F000000700000007F00000060
:102BCC007B000000400000008000000000010000BD
:102BDC0000020000000400000008000000100000CB
:102BEC0000020000000400000008000000100000BB
:102BFC0000200000004000000080000002000000E7
:102C0C00040000000800000010000000020000009A
:102C1C00040000000800000010000000200000006C
:102C2C004000000000127A001000000001000000BB
:04000005080014A932
:00000001FF
