:020000040800F2
:1000000000280020D90B0008090A0008110A00087E
:10001000190A0008210A0008290A00080000000047
:10002000000000000000000000000000310A00088D
:100030003D0A000800000000490A0008550A0008AF
:10004000210C0008210C0008210C0008210C0008DC
:10005000210C0008210C0008210C0008210C0008CC
:10006000210C0008210C0008210C0008210C0008BC
:10007000210C0008210C0008210C0008210C0008AC
:10008000210C0008210C0008210C0008210C00089C
:10009000210C0008210C0008210C0008210C00088C
:1000A000210C0008210C0008210C0008210C00087C
:1000B000610A0008210C000800000000210C000863
:1000C000210C00080000000000000000210C0008C6
:1000D00000000000210C0008210C000800000000B6
:1000E000210C0008210C0008210C00080000000071
:1000F0000000000000000000000000000000000000
:0C01000000000000000000005FF808F1A3
:10010C0010B5054C237833B9044B13B10448AFF345
:10011C0000800123237010BD74000020000000003B
:10012C008430000808B5034B1BB103490348AFF3F7
:10013C00008008BD0000000078000020843000081A
:10014C00034613F8012B002AFBD1181A013870470B
:10015C0080B582B000AF00237B600CE00A4A7B685C
:10016C0052F823309BB201221946084801F040F89E
:10017C007B6801337B607B68052BEFDD00BF00BF24
:10018C000837BD4680BD00BF0000002000080140BC
:10019C0080B500AFFFF7DCFF00BF80BD80B500AFBE
:1001AC0000F03AFD00F04CF800F018F900F0A0F85F
:1001BC0000F084F800F0E8F8FFF7EAFF00F056F9D9
:1001CC0000220021164800F065F94FF4FA72002164
:1001DC00144800F05FF94FF47A720021124800F0D5
:1001EC0059F940F2DC520021104800F053F94FF459
:1001FC00FA6200210E4800F04DF940F6C4120021BD
:10020C000C4800F047F9642200210B4800F042F939
:10021C000A220021094800F03DF900F013FAFCE72E
:10022C00390B0008470B0008550B0008630B00083E
:10023C00710B00087F0B00088D0800088D0B00085F
:10024C0080B590B000AF07F11803282200211846A2
:10025C0002F084FA3B1D00221A605A609A60DA6040
:10026C001A610A23BB610123BB621023FB620123C9
:10027C003B6300237B6307F11803184601F03CF83D
:10028C000346002B01D000F0EAF80F237B6000231B
:10029C00BB600023FB6000233B6100237B613B1DA3
:1002AC000021184601F0AAFA0346002B01D000F0F9
:1002BC00D6F800BF4037BD4680BD000080B500AF0A
:1002CC00094B0A4A1A60084B03225A60064B40F647
:1002DC00FF729A60044800F0BCFF0346002B01D06B
:1002EC0000F0BDF800BF80BD900000200030004041
:1002FC0080B586B000AF07F1080300221A605A607F
:10030C009A60DA603B4600221A605A601D4B4FF02F
:10031C0080421A601B4B41F63F725A60194B002207
:10032C009A60184B0922DA60164B00221A61154BA1
:10033C0000229A61134801F0EFFB0346002B01D019
:10034C0000F08DF84FF48053BB6007F10803194699
:10035C000C4801F06DFD0346002B01D000F07FF836
:10036C0000233B6000237B603B461946054801F0A7
:10037C0045FF0346002B01D000F071F800BF183781
:10038C00BD4680BD9C00002080B500AF114B124AC9
:10039C001A60104B4FF4E1325A600E4B00229A60F7
:1003AC000C4B0022DA600B4B00221A61094B0C2219
:1003BC005A61084B00229A61064B0022DA6105480B
:1003CC0001F086FF0346002B01D000F048F800BF77
:1003DC0080BD00BFE40000200038014080B586B02D
:1003EC0000AF07F1080300221A605A609A60DA60C5
:1003FC00114B9B69104A43F0040393610E4B9B69AC
:10040C0003F004037B607B6800227E210B4800F024
:10041C00EFFE7E23BB600123FB6000233B610223C4
:10042C007B6107F108031946044800F065FD00BF25
:10043C001837BD4680BD00BF0010024000080140C7
:10044C0080B582B000AF78607B681B68B3F1804FD9
:10045C0001D100F085F800BF0837BD4680BD80B4DF
:10046C0000AF72B600BF00BFFDE7000080B500AF63
:10047C0000F00CFA054B00221A70054B00221A7082
:10048C0000F0CAF900F0D2F900BF80BDF8010020DD
:10049C00F901002080B487B000AFF860B9607A60D1
:1004AC000023FB7502E0FB7D0133FB75FA7D2949C6
:1004BC0013469B0013449B000B441B68002B02D07B
:1004CC00FB7D092BEFD9FB7D0A2B04D1224B01229A
:1004DC001A700A2339E0FA7D1E4913469B00134417
:1004EC009B000B44FA681A60FA7DBB681B49A1FBA0
:1004FC000313D908174813469B0013449B0003446D
:10050C0004331960FA7D7B681449A1FB0313D908E5
:10051C00104813469B0013449B0003440833196096
:10052C00FA7D0C4913469B0013449B000B440C337F
:10053C0000221A70FA7DF97D064813469B0013447D
:10054C009B00034410331960FB7D18461C37BD46D5
:10055C0080BC704730010020F8010020CDCCCCCC01
:10056C0080B582B000AF00F067F90023FB715EE04C
:10057C00FA79334913469B0013449B000B441B68C8
:10058C00002B51D0FA792E4913469B0013449B0043
:10059C000B4404331B68002B33D1FA7928491346DA
:1005AC009B0013449B000B440C331B78FA790133EA
:1005BC00D8B2234913469B0013449B000B440C33C5
:1005CC0002461A70FA791E4913469B0013449B008D
:1005DC000B4408331B68002B26D0FA7918491346B4
:1005EC009B0013449B000B4408331B68FA79591E7B
:1005FC00134813469B0013449B00034404331960B7
:10060C0012E0FA790E4913469B0013449B000B44ED
:10061C0004331B68FA79591E094813469B0013448E
:10062C009B00034404331960FB790133FB71FB79A4
:10063C00092B9DD900BF00BF0837BD4680BD00BF48
:10064C003001002080B590B000AF002387F83F3018
:10065C006FE097F83F203D4913469B0013449B00E5
:10066C000B440C331B78002B5ED097F83F20374996
:10067C0013469B0013449B000B441B68984797F848
:10068C003F20324913469B0013449B000B440C3310
:10069C001B7897F83F20013BD8B22C4913469B009E
:1006AC0013449B000B440C3302461A7097F83F20FE
:1006BC00264913469B0013449B000B4408331B68CC
:1006CC00002B04D197F83F30184600F049F897F802
:1006DC003F201E4913469B0013449B000B441B6890
:1006EC001B4A934220D097F83F20184913469B0091
:1006FC0013449B000B441B68164A934214D000F021
:10070C00EFF9024697F83F303846134902F004F8E7
:10071C003B461846FFF714FD03469AB239464FF094
:10072C00FF330E4801F024FE97F83F30013387F871
:10073C003F3097F83F30092B8BD900F067F800F069
:10074C005FF800BF4037BD4680BD00BF30010020C0
:10075C008D0B00088D0800089C300008E400002078
:10076C0080B485B000AF0346FB71FB79092B04D92B
:10077C00214B02221A70012339E0FA791F491346E2
:10078C009B0013449B000B441B68002B05D11A4B98
:10079C0002221A700123FB7301E00023FB73FA7928
:1007AC00164913469B0013449B000B4400221A600D
:1007BC00FA79124913469B0013449B000B440433F3
:1007CC0000221A60FA790D4913469B0013449B00D2
:1007DC000B44083300221A60FA79084913469B002F
:1007EC0013449B000B440C3300221A70FB7B1846FD
:1007FC001437BD4680BC7047F80100203001002042
:10080C0080B400AF00BFBD4680BC704780B400AF61
:10081C0000BFBD4680BC704780B500AF024801F0F8
:10082C00CBF900BF80BD00BF9C00002080B500AF9D
:10083C0000F01AF800BF80BD80B400AF044B1B68F9
:10084C000133034A136000BFBD4680BC704700BF34
:10085C00FC01002080B500AF024800F03EFD00BF57
:10086C0080BD00BF9000002080B400AF034B00227D
:10087C001A6000BFBD4680BC704700BFFC01002061
:10088C0080B500AFFFF7E6FF00BF80BD80B582B03A
:10089C0000AF00237B6007E07B68DBB21846FFF7F4
:1008AC005FFF7B6801337B607B68092BF4DD00BF45
:1008BC0000BF0837BD4680BD80B485B000AF154B76
:1008CC009B69144A43F001039361124B9B6903F03B
:1008DC000103BB60BB680F4BDB690E4A43F08053CE
:1008EC00D3610C4BDB6903F080537B607B680A4B54
:1008FC005B68FB60FB6823F0E063FB60FB6843F024
:10090C008063FB60044AFB68536000BF1437BD462C
:10091C0080BC7047001002400000014080B584B0DC
:10092C0000AF78607B681B68B3F1804F13D10C4B20
:10093C00DB690B4A43F00103D361094BDB6903F01C
:10094C000103FB60FB68002200211C2000F09DFAD3
:10095C001C2000F0B6FA00BF1037BD4680BD00BFAA
:10096C000010024080B588B000AF786007F110032A
:10097C0000221A605A609A60DA607B681B681C4A15
:10098C00934231D11B4B9B691A4A43F480439361C8
:10099C00184B9B6903F48043FB60FB68154B9B6908
:1009AC00144A43F004039361124B9B6903F0040354
:1009BC00BB60BB684FF400733B6102237B61032374
:1009CC00FB6107F1100319460B4800F095FA4FF440
:1009DC0080633B6100237B610023BB6107F1100343
:1009EC001946054800F088FA00BF2037BD4680BD87
:1009FC0000380140001002400008014080B400AFF4
:100A0C0000BFFDE780B400AF00BFFDE780B400AFCE
:100A1C0000BFFDE780B400AF00BFFDE780B400AFBE
:100A2C0000BFFDE780B400AF00BFBD4680BC70477F
:100A3C0080B400AF00BFBD4680BC704780B400AF2F
:100A4C0000BFBD4680BC704780B500AF00F02AF9EE
:100A5C0000BF80BD80B500AF024801F0F9F800BFBF
:100A6C0080BD00BF9C00002080B586B000AF7860D0
:100A7C00144A154BD31A7B617B693B61134B1B6882
:100A8C00002B02D1114B124A1A60104B1A687B686A
:100A9C0013443A699A4207D201F068FE03460C22CD
:100AAC001A604FF0FF3309E0084B1B68FB60074BE3
:100ABC001A687B681344054A1360FB68184618379C
:100ACC00BD4680BD0028002000040000000200206C
:100ADC005003002080B400AF00BFBD4680BC7047FF
:100AEC0080B400AF024B1B681846BD4680BC7047F3
:100AFC002C01002080B582B000AF78607B68002BA1
:100B0C000CDB7B68052B09DC064A7B6852F823302A
:100B1C009BB21946044800F083FB00E000BF083785
:100B2C00BD4680BD000000200008014080B500AF2C
:100B3C000020FFF7DFFF00BF80BD80B500AF0120B4
:100B4C00FFF7D8FF00BF80BD80B500AF0220FFF7D4
:100B5C00D1FF00BF80BD80B500AF0320FFF7CAFFF7
:100B6C0000BF80BD80B500AF0420FFF7C3FF00BFFE
:100B7C0080BD80B500AF0520FFF7BCFF00BF80BD76
:100B8C0080B58EB000AFFFF7ABFF02463B1D0C49A2
:100B9C00184601F0C1FD3B1D1846FFF7D1FA03467C
:100BAC009AB2391D4FF0FF33064801F0E1FB064BBA
:100BBC001B680A33044A136000BF3837BD4680BD3A
:100BCC00B8300008E40000202C010020FFF782FF61
:100BDC000B480C490C4A002302E0D458C45004338F
:100BEC00C4188C42F9D3094A094C002301E0136064
:100BFC000432A242FBD301F0BFFDFFF7CFFA7047DE
:100C0C000000002074000020443100087400002013
:100C1C0050030020FEE7000080B500AF084B1B68B6
:100C2C00074A43F010031360032000F023F90F2050
:100C3C0000F008F8FFF740FE0023184680BD00BF07
:100C4C000020024080B582B000AF7860124B1A6869
:100C5C00124B1B7819464FF47A73B3FBF1F3B2FBCA
:100C6C00F3F3184600F03BF90346002B01D00123A7
:100C7C000EE07B680F2B0AD8002279684FF0FF300A
:100C8C0000F003F9064A7B681360002300E001239F
:100C9C0018460837BD4680BD1800002020000020F3
:100CAC001C00002080B400AF054B1B781A46054B86
:100CBC001B681344034A136000BFBD4680BC7047D9
:100CCC00200000200402002080B400AF024B1B68FF
:100CDC001846BD4680BC70470402002080B485B025
:100CEC0000AF78607B6803F00703FB600C4BDB689C
:100CFC00BB60BA684FF6FF031340BB60FB681A0277
:100D0C00BB68134343F0BF6343F40033BB60044A36
:100D1C00BB68D36000BF1437BD4680BC704700BFB2
:100D2C0000ED00E080B400AF044BDB681B0A03F05D
:100D3C0007031846BD4680BC704700BF00ED00E0BD
:100D4C0080B483B000AF0346FB7197F90730002BDA
:100D5C000BDBFB7903F01F02064997F907305B099F
:100D6C00012000FA02F241F8232000BF0C37BD46E7
:100D7C0080BC704700E100E080B483B000AF034654
:100D8C003960FB7197F90730002B0ADB3B68DAB24C
:100D9C000C4997F907301201D2B20B4483F80023A7
:100DAC000AE03B68DAB20849FB7903F00F03043B15
:100DBC001201D2B20B441A7600BF0C37BD4680BC70
:100DCC00704700BF00E100E000ED00E080B489B0A6
:100DDC0000AFF860B9607A60FB6803F00703FB6151
:100DEC00FB69C3F10703042B28BF0423BB61FB6918
:100DFC000433062B02D9FB69033B00E000237B6123
:100E0C004FF0FF32BB6902FA03F3DA43BB681A40B6
:100E1C007B699A404FF0FF317B6901FA03F3D943A8
:100E2C007B680B40134318462437BD4680BC704783
:100E3C0080B582B000AF78607B68013BB3F1807FF6
:100E4C0001D301230FE00A4A7B68013B53600F2159
:100E5C004FF0FF30FFF790FF054B00229A60044BD8
:100E6C0007221A60002318460837BD4680BD00BF14
:100E7C0010E000E080B582B000AF78607868FFF7D2
:100E8C002DFF00BF0837BD4680BD80B586B000AFD2
:100E9C000346B9607A60FB7300237B61FFF742FF66
:100EAC0078617A68B9687869FFF790FF024697F91C
:100EBC000F3011461846FFF75FFF00BF1837BD46CD
:100ECC0080BD80B582B000AF0346FB7197F9073047
:100EDC001846FFF735FF00BF0837BD4680BD80B50B
:100EEC0082B000AF78607868FFF7A2FF034618461F
:100EFC000837BD4680BD000080B48BB000AF786071
:100F0C00396000237B6200233B6261E101227B6A32
:100F1C0002FA03F3FB613B681B68FA691340BB617F
:100F2C00BA69FB699A4240F050813B685B68974A0A
:100F3C0093425ED0954A934275D8954A934258D0C5
:100F4C00934A93426FD8934A934252D0914A934218
:100F5C0069D8914A93424CD08F4A934263D88F4AB6
:100F6C00934246D08D4A93425DD8122B2AD8122B2D
:100F7C0059D801A252F823F0FF0F0008D90F00082E
:100F8C00EB0F00082D100008331000083310000878
:100F9C003310000833100008331000083310000819
:100FAC003310000833100008331000083310000809
:100FBC00331000083310000833100008E10F00084C
:100FCC00F50F0008764A934213D02CE03B68DB689F
:100FDC003B6229E03B68DB6804333B6224E03B68FE
:100FEC00DB6808333B621FE03B68DB680C333B6219
:100FFC001AE03B689B68002B02D104233B6213E090
:10100C003B689B68012B05D108233B627B68FA691E
:10101C001A6109E008233B627B68FA695A6103E0B4
:10102C0000233B6200E000BFBB69FF2B01D87B684B
:10103C0001E07B6804337B61BB69FF2B02D87B6AC0
:10104C009B0002E07B6A083B9B003B617B691A6852
:10105C000F213B6901FA03F3DB431A40396A3B6900
:10106C0001FA03F31A437B691A603B685B6803F06F
:10107C008053002B00F0A9804A4B9B69494A43F0EE
:10108C0001039361474B9B6903F00103BB60BB6891
:10109C00454A7B6A9B08023352F82330FB607B6A1B
:1010AC0003F003039B000F2202FA03F3DB43FA68FD
:1010BC001340FB607B683D4A93420DD07B683C4AF1
:1010CC00934207D07B683B4A934201D1022304E050
:1010DC00032302E0012300E000237A6A02F00302FA
:1010EC0092009340FA681343FB602F497B6A9B087C
:1010FC000233FA6841F823203B685B6803F48013E1
:10110C00002B06D02C4B9A682B49BB6913438B6080
:10111C0006E0294B9A68BB69DB43274913408B6077
:10112C003B685B6803F40013002B06D0224BDA6893
:10113C002149BB691343CB6006E01F4BDA68BB69DE
:10114C00DB431D491340CB603B685B6803F4003301
:10115C00002B06D0184B5A681749BB6913434B60D8
:10116C0006E0154B5A68BB69DB43134913404B60CF
:10117C003B685B6803F48033002B1FD00E4B1A685E
:10118C000D49BB6913430B601FE000BF0000321018
:10119C00000031100000221000002110000012107D
:1011AC000000111000100240000001400008014036
:1011BC00000C014000100140000401400B4B1A6868
:1011CC00BB69DB43094913400B607B6A01337B62CB
:1011DC003B681A687B6A22FA03F3002B7FF496AE05
:1011EC0000BF00BF2C37BD4680BC704700040140D7
:1011FC0080B483B000AF78600B467B8013467B7065
:10120C007B78002B03D07A887B681A6103E07B889B
:10121C001A047B681A6100BF0C37BD4680BC70474E
:10122C0080B485B000AF78600B467B807B68DB6850
:10123C00FB607A88FB6813401A04FB68D9437B88EF
:10124C000B401A437B681A6100BF1437BD4680BC43
:10125C00704780B584B000AF78607B68002B01D1FB
:10126C00012336E07B681B684CF6CC421A607B6825
:10127C001B6845F255521A607B681B687A68526885
:10128C005A607B681B687A6892689A60FFF71CFD4D
:10129C00F86011E0FFF718FD0246FB68D31A41F223
:1012AC003C32934208D97B681B68DB6803F003036C
:1012BC00002B01D003230CE07B681B68DB6803F078
:1012CC000303002BE6D17B681B684AF6AA221A603E
:1012DC00002318461037BD4680BD80B483B000AFE4
:1012EC0078607B681B684AF6AA221A6000231846AD
:1012FC000C37BD4680BC704780B586B000AF7860B7
:10130C007B68002B01D1012372E27B681B6803F020
:10131C000103002B00F08780924B5B6803F00C03F9
:10132C00042B0CD08F4B5B6803F00C03082B12D1F1
:10133C008C4B5B6803F48033B3F5803F0BD1894B46
:10134C001B6803F40033002B6CD07B685B68002BAC
:10135C0068D101234CE27B685B68B3F5803F06D112
:10136C00804B1B687F4A43F4803313602EE07B680C
:10137C005B68002B0CD17B4B1B687A4A23F48033BF
:10138C001360784B1B68774A23F4802313601DE0AD
:10139C007B685B68B3F5A02F0CD1724B1B68714A4C
:1013AC0043F4802313606F4B1B686E4A43F4803305
:1013BC0013600BE06B4B1B686A4A23F48033136099
:1013CC00684B1B68674A23F4802313607B685B6857
:1013DC00002B13D0FFF778FC386108E0FFF774FCA2
:1013EC0002463B69D31A642B01D9032300E25D4BFF
:1013FC001B6803F40033002BF0D014E0FFF764FCFF
:10140C00386108E0FFF760FC02463B69D31A642B95
:10141C0001D90323ECE1534B1B6803F40033002B7D
:10142C00F0D100E000BF7B681B6803F00203002BC7
:10143C0063D04C4B5B6803F00C03002B0BD0494B77
:10144C005B6803F00C03082B1CD1464B5B6803F460
:10145C008033002B16D1434B1B6803F00203002B87
:10146C0005D07B681B69012B01D00123C0E13D4BEA
:10147C001B6823F0F8027B685B69DB003949134376
:10148C000B603AE07B681B69002B20D0364B0122A5
:10149C001A60FFF719FC386108E0FFF715FC0246EB
:1014AC003B69D31A022B01D90323A1E12D4B1B68F5
:1014BC0003F00203002BF0D02A4B1B6823F0F80238
:1014CC007B685B69DB00274913430B6015E0264BF7
:1014DC0000221A60FFF7F8FB386108E0FFF7F4FB15
:1014EC0002463B69D31A022B01D9032380E11D4B21
:1014FC001B6803F00203002BF0D17B681B6803F020
:10150C000803002B3AD07B689B69002B19D0174B32
:10151C0001221A60FFF7D8FB386108E0FFF7D4FB13
:10152C0002463B69D31A022B01D9032360E10D4B10
:10153C005B6A03F00203002BF0D0012000F0CEFA1E
:10154C001CE00A4B00221A60FFF7BEFB38610FE06B
:10155C00FFF7BAFB02463B69D31A022B08D90323C7
:10156C0046E100BF001002400000424280044242AB
:10157C00924B5B6A03F00203002BE9D17B681B687A
:10158C0003F00403002B00F0A6800023FB758B4BAB
:10159C00DB6903F08053002B0DD1884BDB69874A44
:1015AC0043F08053D361854BDB6903F08053BB6000
:1015BC00BB680123FB75824B1B6803F48073002B03
:1015CC0018D17F4B1B687E4A43F480731360FFF77E
:1015DC007BFB386108E0FFF777FB02463B69D31AC7
:1015EC00642B01D9032303E1754B1B6803F480734F
:1015FC00002BF0D07B68DB68012B06D16F4B1B6A8C
:10160C006E4A43F0010313622DE07B68DB68002B0C
:10161C000CD16A4B1B6A694A23F001031362674BB6
:10162C001B6A664A23F0040313621CE07B68DB68C8
:10163C00052B0CD1614B1B6A604A43F00403136207
:10164C005E4B1B6A5D4A43F0010313620BE05B4B7C
:10165C001B6A5A4A23F001031362584B1B6A574A00
:10166C0023F0040313627B68DB68002B15D0FFF7B3
:10167C002BFB38610AE0FFF727FB02463B69D31AC4
:10168C0041F28832934201D90323B1E04B4B1B6AE0
:10169C0003F00203002BEED014E0FFF715FB3861CA
:1016AC000AE0FFF711FB02463B69D31A41F288327C
:1016BC00934201D903239BE0404B1B6A03F00203C6
:1016CC00002BEED1FB7D012B05D13C4BDB693B4A5A
:1016DC0023F08053D3617B68DB69002B00F087809B
:1016EC00364B5B6803F00C03082B61D07B68DB691D
:1016FC00022B46D1334B00221A60FFF7E5FA386112
:10170C0008E0FFF7E1FA02463B69D31A022B01D934
:10171C0003236DE0294B1B6803F00073002BF0D101
:10172C007B681B6AB3F5803F08D1244B5B6823F4BC
:10173C0000327B689B68214913434B601F4B5B68ED
:10174C0023F474127B68196A7B685B6A0B431B4930
:10175C0013434B601B4B01221A60FFF7B5FA38613B
:10176C0008E0FFF7B1FA02463B69D31A022B01D904
:10177C0003233DE0114B1B6803F00073002BF0D0EA
:10178C0035E0104B00221A60FFF79EFA386108E032
:10179C00FFF79AFA02463B69D31A022B01D90323AD
:1017AC0026E0064B1B6803F00073002BF0D11EE003
:1017BC007B68DB69012B07D1012319E00010024083
:1017CC0000700040600042420B4B5B68FB60FB68A2
:1017DC0003F480327B681B6A9A4206D1FB6803F4DF
:1017EC0070127B685B6A9A4201D0012300E00023EF
:1017FC0018461837BD4680BD0010024080B584B035
:10180C0000AF786039607B68002B01D10123D0E0F8
:10181C006A4B1B6803F007033A689A4210D9674B6E
:10182C001B6823F0070265493B6813430B60634B4D
:10183C001B6803F007033A689A4201D00123B8E011
:10184C007B681B6803F00203002B20D07B681B68AD
:10185C0003F00403002B05D0594B5B68584A43F442
:10186C00E06353607B681B6803F00803002B05D012
:10187C00534B5B68524A43F460535360504B5B6864
:10188C0023F0F0027B689B684D4913434B607B68E7
:10189C001B6803F00103002B40D07B685B68012BB5
:1018AC0007D1474B1B6803F40033002B15D10123E0
:1018BC007FE07B685B68022B07D1414B1B6803F010
:1018CC000073002B09D1012373E03D4B1B6803F01F
:1018DC000203002B01D101236BE0394B5B6823F031
:1018EC0003027B685B68364913434B60FFF7ECF9E6
:1018FC00F8600AE0FFF7E8F90246FB68D31A41F2F8
:10190C008832934201D9032353E02D4B5B6803F0DB
:10191C000C027B685B689B009A42EBD1274B1B68DF
:10192C0003F007033A689A4210D2244B1B6823F049
:10193C00070222493B6813430B60204B1B6803F0E2
:10194C0007033A689A4201D0012332E07B681B6896
:10195C0003F00403002B08D0194B5B6823F4E062FE
:10196C007B68DB68164913434B607B681B6803F08C
:10197C000803002B09D0124B5B6823F460527B6880
:10198C001B69DB000E4913434B6000F021F8024643
:10199C000B4B5B681B0903F00F030A49CB5C22FA63
:1019AC0003F3094A1360094B1B681846FFF74AF901
:1019BC00002318461037BD4680BD00BF00200240F2
:1019CC0000100240D4300008180000201C00002039
:1019DC0080B487B000AF0023FB600023BB60002302
:1019EC007B6100237B6000233B611E4B5B68FB60CB
:1019FC00FB6803F00C03042B02D0082B03D027E068
:101A0C00194B3B6127E0FB689B0C03F00F03174A53
:101A1C00D35C7B60FB6803F48033002B10D0114B3C
:101A2C005B685B0C03F00103114AD35CBB607B6801
:101A3C000D4A03FB02F2BB68B2FBF3F37B6104E0DB
:101A4C007B680C4A02FB03F37B617B693B6102E020
:101A5C00054B3B6100BF3B6918461C37BD4680BC3B
:101A6C00704700BF0010024000127A00EC300008F2
:101A7C00FC30000800093D0080B400AF024B1B682D
:101A8C001846BD4680BC70471800002080B500AFDA
:101A9C00FFF7F2FF0246054B5B681B0A03F00703D6
:101AAC000349CB5C22FA03F3184680BD00100240B8
:101ABC00E430000880B500AFFFF7DEFF0246054BAF
:101ACC005B68DB0A03F007030349CB5C22FA03F3E0
:101ADC00184680BD00100240E430000880B485B088
:101AEC0000AF78600A4B1B680A4AA2FB03235B0A0F
:101AFC007A6802FB03F3FB6000BFFB685A1EFA60B6
:101B0C00002BF9D100BF00BF1437BD4680BC704715
:101B1C0018000020D34D621080B582B000AF786001
:101B2C007B68002B01D1012341E07B6893F83D30A9
:101B3C00DBB2002B06D17B68002283F83C2078684E
:101B4C00FEF7ECFE7B68022283F83D207B681A6866
:101B5C007B6804331946104600F056FA7B68012264
:101B6C0083F846207B68012283F83E207B680122A3
:101B7C0083F83F207B68012283F840207B68012298
:101B8C0083F841207B68012283F842207B68012284
:101B9C0083F843207B68012283F844207B68012270
:101BAC0083F845207B68012283F83D2000231846EA
:101BBC000837BD4680BD000080B485B000AF7860AA
:101BCC007B6893F83D30DBB2012B01D0012335E06B
:101BDC007B68022283F83D207B681B68DA687B688F
:101BEC001B6842F00102DA607B681B68164A93425C
:101BFC0009D07B681B68B3F1804F04D07B681B68ED
:101C0C00124A934211D17B681B689B6803F007034F
:101C1C00FB60FB68062B10D07B681B681A687B681E
:101C2C001B6842F001021A6007E07B681B681A68A7
:101C3C007B681B6842F001021A60002318461437B7
:101C4C00BD4680BC704700BF002C01400004004022
:101C5C0080B584B000AF78607B681B68DB68FB6084
:101C6C007B681B681B69BB60BB6803F00203002B1D
:101C7C0020D0FB6803F00203002B1BD07B681B6891
:101C8C006FF002021A617B6801221A777B681B686D
:101C9C009B6903F00303002B03D0786800F098F9DC
:101CAC0005E0786800F08BF9786800F09AF97B68A9
:101CBC0000221A77BB6803F00403002B20D0FB68CA
:101CCC0003F00403002B1BD07B681B686FF004022D
:101CDC001A617B6802221A777B681B689B6903F484
:101CEC004073002B03D0786800F072F905E0786837
:101CFC0000F065F9786800F074F97B6800221A77B7
:101D0C00BB6803F00803002B20D0FB6803F008032A
:101D1C00002B1BD07B681B686FF008021A617B6874
:101D2C0004221A777B681B68DB6903F00303002B22
:101D3C0003D0786800F04CF905E0786800F03FF9C2
:101D4C00786800F04EF97B6800221A77BB6803F0C4
:101D5C001003002B20D0FB6803F01003002B1BD0CA
:101D6C007B681B686FF010021A617B6808221A7777
:101D7C007B681B68DB6903F44073002B03D0786825
:101D8C0000F026F905E0786800F019F9786800F0A1
:101D9C0028F97B6800221A77BB6803F00103002B3B
:101DAC000CD0FB6803F00103002B07D07B681B6889
:101DBC006FF001021A617868FEF742FBBB6803F012
:101DCC008003002B0CD0FB6803F08003002B07D0A2
:101DDC007B681B686FF080021A61786800F06FFAFC
:101DEC00BB6803F04003002B0CD0FB6803F04003EE
:101DFC00002B07D07B681B686FF040021A61786873
:101E0C0000F0F8F8BB6803F02003002B0CD0FB6843
:101E1C0003F02003002B07D07B681B686FF02002B7
:101E2C001A61786800F042FA00BF1037BD4680BDD9
:101E3C0080B584B000AF786039600023FB737B6899
:101E4C0093F83C30012B01D10223B4E07B680122D2
:101E5C0083F83C207B68022283F83D207B681B685A
:101E6C009B68BB60BB6823F07703BB60BB6823F443
:101E7C007F43BB607B681B68BA689A603B681B68D1
:101E8C00B3F5005F3ED0B3F5005F00F28780B3F589
:101E9C00805F00F08680B3F5805F7FD8702B1AD0FE
:101EAC00702B7BD8602B50D0602B77D8502B3CD02C
:101EBC00502B73D8402B58D0402B6FD8302B64D07C
:101ECC00302B6BD8202B60D0202B67D8002B5CD00C
:101EDC00102B5AD062E07B6818683B6899683B68A5
:101EEC005A683B68DB6800F06AF97B681B689B6882
:101EFC00BB60BB6843F07703BB607B681B68BA6848
:101F0C009A604FE07B6818683B6899683B685A6830
:101F1C003B68DB6800F053F97B681B689A687B6848
:101F2C001B6842F480429A603CE07B6818683B680E
:101F3C0059683B68DB681A4600F0CAF87B681B6876
:101F4C005021184600F021F92CE07B6818683B689A
:101F5C0059683B68DB681A4600F0E8F87B681B6838
:101F6C006021184600F011F91CE07B6818683B688A
:101F7C0059683B68DB681A4600F0AAF87B681B6856
:101F8C004021184600F001F90CE07B681A683B68A8
:101F9C001B681946104600F0F8F803E00123FB73A8
:101FAC0000E000BF7B68012283F83D207B680022A3
:101FBC0083F83C20FB7B18461037BD4680BD80B4AF
:101FCC0083B000AF786000BF0C37BD4680BC704753
:101FDC0080B483B000AF786000BF0C37BD4680BCC6
:101FEC00704780B483B000AF786000BF0C37BD463B
:101FFC0080BC704780B483B000AF786000BF0C37F2
:10200C00BD4680BC7047000080B485B000AF7860DE
:10201C0039607B681B68FB607B682B4A934207D056
:10202C007B68B3F1804F03D07B68284A934208D178
:10203C00FB6823F07003FB603B685B68FA68134332
:10204C00FB607B68204A934207D07B68B3F1804FDA
:10205C0003D07B681D4A934208D1FB6823F440737C
:10206C00FB603B68DB68FA681343FB60FB6823F09A
:10207C0080023B685B691343FB607B68FA681A60FB
:10208C003B689A687B68DA623B681A687B689A627C
:10209C007B680D4A934203D13B681A697B681A63CB
:1020AC007B6801225A617B681B6903F00103002BDA
:1020BC0005D07B681B6923F001027B681A6100BFA5
:1020CC001437BD4680BC7047002C01400004004012
:1020DC0080B487B000AFF860B9607A60FB681B6AA7
:1020EC007B61FB681B6A23F00102FB681A62FB68C8
:1020FC009B693B613B6923F0F0033B617B681B01EF
:10210C003A6913433B617B6923F00A037B617A696B
:10211C00BB6813437B61FB683A699A61FB687A6917
:10212C001A6200BF1C37BD4680BC704780B487B0B4
:10213C0000AFF860B9607A60FB681B6A7B61FB6872
:10214C001B6A23F01002FB681A62FB689B693B61F7
:10215C003B6923F470433B617B681B033A6913436F
:10216C003B617B6923F0A0037B61BB681B017A692F
:10217C0013437B61FB683A699A61FB687A691A625E
:10218C0000BF1C37BD4680BC704780B485B000AF23
:10219C00786039607B689B68FB60FB6823F0700398
:1021AC00FB603A68FB68134343F00703FB607B68F2
:1021BC00FA689A6000BF1437BD4680BC704780B483
:1021CC0087B000AFF860B9607A603B60FB689B68D1
:1021DC007B617B6923F47F437B613B681A027B68DC
:1021EC001A43BB6813437A6913437B61FB687A69B2
:1021FC009A6000BF1C37BD4680BC704780B485B068
:10220C0000AF786039607B6893F83C30012B01D1CA
:10221C00022341E07B68012283F83C207B68022288
:10222C0083F83D207B681B685B68FB607B681B68E0
:10223C009B68BB60FB6823F07003FB603B681B680A
:10224C00FA681343FB607B681B68FA685A607B680A
:10225C001B68144A934209D07B681B68B3F1804F0A
:10226C0004D07B681B68104A93420CD1BB6823F0E6
:10227C008003BB603B685B68BA681343BB607B68D8
:10228C001B68BA689A607B68012283F83D207B68E2
:10229C00002283F83C20002318461437BD4680BC2E
:1022AC00704700BF002C01400004004080B483B094
:1022BC0000AF786000BF0C37BD4680BC704780B45F
:1022CC0083B000AF786000BF0C37BD4680BC704750
:1022DC0080B582B000AF78607B68002B01D1012300
:1022EC0042E07B6893F84130DBB2002B06D17B686F
:1022FC00002283F840207868FEF734FB7B682422A8
:10230C0083F841207B681B68DA687B681B6822F4C1
:10231C000052DA60786800F071F97B681B681A6902
:10232C007B681B6822F490421A617B681B685A69AF
:10233C007B681B6822F02A025A617B681B68DA688A
:10234C007B681B6842F40052DA607B6800225A6496
:10235C007B68202283F841207B68202283F842206E
:10236C007B6800225A63002318460837BD4680BD9F
:10237C0080B58AB002AFF860B9603B601346FB8051
:10238C0000237B61FB6893F84130DBB2202B75D1C5
:10239C00BB68002B02D0FB88002B01D101236EE01F
:1023AC00FB6800225A64FB68212283F84120FEF767
:1023BC008BFC7861FB68FA889A84FB68FA88DA846B
:1023CC00FB689B68B3F5805F08D1FB681B69002B29
:1023DC0004D10023FB61BB68BB6103E0BB68FB61FC
:1023EC000023BB612EE03B6800937B6900228021B7
:1023FC00F86800F048F80346002B05D0FB68202253
:10240C0083F8412003233AE0FB69002B0BD1BB6915
:10241C001B881A46FB681B68C2F308025A60BB692A
:10242C000233BB6107E0FB691A78FB681B685A60D2
:10243C00FB690133FB61FB68DB8C9BB2013B9AB2FD
:10244C00FB68DA84FB68DB8C9BB2002BCBD13B683E
:10245C0000937B6900224021F86800F014F80346D1
:10246C00002B05D0FB68202283F84120032306E0D3
:10247C00FB68202283F84120002300E00223184649
:10248C002037BD4680BD80B586B000AFF860B9601E
:10249C003B601346FB713BE03B6AB3F1FF3F37D027
:1024AC00FEF712FC02463B68D31A3A6A9A4202D3F0
:1024BC003B6A002B01D103233AE0FB681B68DB6805
:1024CC0003F00403002B23D0BB68802B20D0BB6807
:1024DC00402B1DD0FB681B681B6803F00803082BFE
:1024EC0016D100237B61FB681B681B687B61FB6852
:1024FC001B685B687B617B69F86800F01DF8FB6802
:10250C0008225A64FB68002283F8402001230FE064
:10251C00FB681B681A68BB681340BA689A420CBF08
:10252C0001230023DBB21A46FB799A42B4D0002374
:10253C0018461837BD4680BD80B495B000AF7860A2
:10254C007B681B680C337B637B6B53E8003F3B63FE
:10255C003B6B23F49073FB647B681B680C33FA6C45
:10256C003A64FB63F96B3A6C41E80023BB63BB6BC9
:10257C00002BE5D17B681B6814333B623B6A53E844
:10258C00003FFB61FB6923F00103BB647B681B68A4
:10259C001433BA6CFA62BB62B96AFA6A41E8002376
:1025AC007B627B6A002BE5D17B681B6B012B19D1FD
:1025BC007B681B680C33FB60FB6853E8003FBB6017
:1025CC00BB6823F010037B647B681B680C337A6C4C
:1025DC00BA617B617969BA6941E800233B613B6967
:1025EC00002BE5D17B68202283F842207B680022F7
:1025FC001A6300BF5437BD4680BC704780B584B0A9
:10260C0000AF78607B681B681B6923F440517B68C2
:10261C00DA687B681B680A431A617B689A687B6876
:10262C001B691A437B685B691343BB607B681B683F
:10263C00DB6823F4B05323F00C037A681268B96892
:10264C000B43D3607B681B685B6923F440717B6828
:10265C009A697B681B680A435A617B681B682C4A21
:10266C00934203D1FFF726FAF86002E0FFF70EFA67
:10267C00F860FA6813469B0013449A001A447B686E
:10268C005B689B00B2FBF3F3224AA2FB03235B09BA
:10269C001901FA6813469B0013449A001A447B688C
:1026AC005B689B00B2FBF3F21A4BA3FB02035B09C2
:1026BC00642000FB03F3D31A1B013233154AA2FB2F
:1026CC0003235B0903F0F0031944FA6813469B00DB
:1026DC0013449A001A447B685B689B00B2FBF3F2CC
:1026EC000C4BA3FB02035B09642000FB03F3D31A1E
:1026FC001B013233074AA2FB03235B0903F00F02D1
:10270C007B681B680A449A6000BF1037BD4680BDC9
:10271C00003801401F85EB510EB46FF0004110B52D
:10272C0000249DB01FAB02900690079104910948BC
:10273C00094953F8042B0591006802A901931B94D5
:10274C0000F092F9029B1C701DB0BDE8104003B064
:10275C00704700BF240000200802FFFF034602441C
:10276C00934200D1704703F8011BF9E7014B18683D
:10277C00704700BF2400002070B500260C4D0D4C96
:10278C00641BA410A64209D100F076FC00260A4D69
:10279C000A4C641BA410A64205D170BD55F8043B2D
:1027AC0098470136EEE755F8043B98470136F2E7B7
:1027BC003C3100083C3100083C3100084031000835
:1027CC007047704738B50546002940D051F8043C95
:1027DC000C1F002BB8BFE41800F0DEF81C4A13687D
:1027EC0033B9636014602846BDE8384000F0DAB8AD
:1027FC00A34208D9206821188B4201BF19685B6875
:10280C0009182160EDE71A465B680BB1A342FAD9AF
:10281C0011685018A0420BD1206801445018834213
:10282C001160E0D118685B68084410605360DAE707
:10283C0002D90C232B60D6E7206821188B4201BFEC
:10284C0019685B680918216063605460CBE738BD78
:10285C004C03002070B50F4E0C463168054611B97B
:10286C0000F0A8FB30602146284600F0A3FB431C77
:10287C0003D14FF0FF34204670BDC41C24F0030478
:10288C00A042F8D0211A284600F094FB0130F2D176
:10289C00EFE700BF480300202DE9F843CD1C25F0DD
:1028AC00030508350C2D38BF0C25002D064601DB21
:1028BC00A94204D90C2333600020BDE8F883DFF86B
:1028CC00D48000F069F8D8F800301C4644BB294687
:1028DC003046FFF7BFFF431C044658D1D8F80040E0
:1028EC002746002F43D1002C4BD023683946304665
:1028FC0004EB030900F05EFB814542D121683046B0
:10290C006D1A2946FFF7A6FF01303AD023682B44F5
:10291C002360D8F800305A6862BBC8F800700FE02A
:10292C002268521B20D40B2A17D96119A3422560A7
:10293C0018BF5960636808BFC8F8001062514B603B
:10294C00304600F02FF804F10B00231D20F0070097
:10295C00C21A1CBF1B1AA350AFE76268A3420CBF7C
:10296C00C8F800205A60EBE723466468AEE73C46A3
:10297C007F68B6E71A465B68A342FBD1002353601D
:10298C00DEE70C233046336000F00CF894E705606A
:10299C00D6E700BF4C0300200148FFF711BF00BF72
:1029AC00440300200148FFF70CBF00BF4403002084
:1029BC002DE9F0471F468E688246BE420C46904673
:1029CC000B682DD8B1F90C2012F4906F26D06569E4
:1029DC00096905EB4505A3EB010905EBD5757B1CD6
:1029EC004B446D109D4238BF1D46530527D52946D3
:1029FC00FFF752FF064660B34A46216900F0F8FA29
:102A0C00A38923F4906343F08003A38126614E4491
:102A1C0026603E466561A5EB0905A560BE4200D95E
:102A2C003E4632464146206800F0AAFA0020A368D0
:102A3C009B1BA360236833442360BDE8F0872A46C0
:102A4C0000F0E4FA06460028E0D150462169FFF771
:102A5C00B9FE0C23CAF80030A3894FF0FF3043F0C5
:102A6C004003A381E9E700002DE9F04F98468B89DC
:102A7C0007461B060D4614469DB010D50B6973B95D
:102A8C004021FFF709FF2860286130B90C233B6017
:102A9C004FF0FF301DB0BDE8F08F40236B61002379
:102AAC00099320238DF8293030234FF00109CDF8FC
:102ABC000C80DFF898818DF82A3023469A4613F85B
:102ACC00012B0AB1252AF9D1BAEB040B0BD05B46CA
:102ADC00224629463846FFF76BFF013000F0A780ED
:102AEC00099A5A4409929AF80030002B00F09F8002
:102AFC0000234FF0FF32CDE905230AF1010A0493BC
:102B0C0007938DF853301A935446052214F8011B81
:102B1C004E4800F05FFA049AD8B9D00644BF20237F
:102B2C008DF85330110744BF2B238DF853309AF88E
:102B3C0000302A2B15D0544600204FF00A0C079A6F
:102B4C00214611F8013B303B092B4BD9B0B1079210
:102B5C0014E0A0EB080309FA03F31343A246049311
:102B6C00D2E7039B191D1B680391002BBBBF5B4273
:102B7C0042F0020207930793B8BF049223782E2BDE
:102B8C000AD163782A2B32D1039B02341A1D1B689D
:102B9C00039243EAE3730593DFF8B4A00322504693
:102BAC00217800F017FA38B14022049BA0EB0A0000
:102BBC00824013430134049314F8011B0622254868
:102BCC008DF8281000F006FA002836D0224B1BBBDB
:102BDC00039B073323F0070308330393099B334408
:102BEC0009936AE70C4601200CFB0232A8E700238C
:102BFC004FF00A0C194601340593204610F8012BAE
:102C0C00303A092A03D9002BC6D00591C4E70446F3
:102C1C0001230CFB0121F0E703AB00932A46384655
:102C2C000E4B04A9AFF30080421C0646D6D1AB89EB
:102C3C005B063FF52DAF09982CE703AB00932A46B2
:102C4C003846064B04A900F07DF8EDE7FE3000088D
:102C5C00043100080831000800000000BD290008FC
:102C6C002DE9F047164698468A680B690746934249
:102C7C00B8BF1346336091F843200C46DDF8209022
:102C8C000AB1013333602368990642BF33680233BB
:102C9C003360256815F0060506D104F1190AE368BE
:102CAC0032689B1AAB422BDC94F843302268003B11
:102CBC0018BF0123920630D44146384604F1430232
:102CCC00C847013023D02368226903F00603042B84
:102CDC0014BF002533684FF0000608BFE56804F107
:102CEC001A0408BFED1A54F8123C08BF25EAE57522
:102CFC009342C4BF9B1AED18B5421AD1002008E0CC
:102D0C000123524641463846C847013003D14FF0A3
:102D1C00FF30BDE8F0870135C1E73020E11881F8BC
:102D2C0043005A1C94F845102244023382F8431095
:102D3C00C2E70123224641463846C8470130E6D057
:102D4C000136D9E72DE9FF470F7E9146782F804653
:102D5C000C469A460C9E01F1430207D8622F0AD802
:102D6C00002F00F0D180582F00F0B88004F14206FB
:102D7C0084F842703AE0A7F16303152BF6D801A151
:102D8C0051F823F0E92D0008FD2D0008792D0008DD
:102D9C00792D0008792D0008792D0008FD2D0008EB
:102DAC00792D0008792D0008792D0008792D00085F
:102DBC00FB2E0008272E0008B52E0008792D0008E0
:102DCC00792D00081D2F0008792D0008272E0008EA
:102DDC00792D0008792D0008BD2E000833681A1DC6
:102DEC001B68326004F1420684F8423001239CE0F7
:102DFC0033682068191D3160060601D51D6803E093
:102E0C004506FBD5B3F90050002D03DA2D236D4296
:102E1C0084F843300A23584811E0216833680806C7
:102E2C0053F8045B02D4490648BFADB26F2F336030
:102E3C0014BF0A2308235048002184F84310666805
:102E4C00002EA66005DB21682E4321F004012160D1
:102E5C004BD01646B5FBF3F103FB1157C75D06F8D3
:102E6C00017D2F46BB420D46F4D9082B0BD12368AC
:102E7C00DF0708D5236961689942DEBF302306F865
:102E8C00013C06F1FF36921B22614B46214640461F
:102E9C00CDF800A003AAFFF7E3FE01304AD14FF0B2
:102EAC00FF3004B0BDE8F087236843F020032360B3
:102EBC007827324884F84570236831681F0651F82A
:102ECC00045B02D45F0648BFADB23160D90744BF82
:102EDC0043F0200323601DB11023ADE72648E9E73A
:102EEC00236823F020032360F6E71646BDE733681A
:102EFC002568181D616930602E061B6801D51960A4
:102F0C0002E06806FBD51980002316462361BCE756
:102F1C00336800211A1D32601E686268304600F06A
:102F2C0059F808B1801B606063682361002384F842
:102F3C004330AAE73246494640462369D047013020
:102F4C00ADD023689B0713D4E068039B9842B8BFAD
:102F5C001846A6E70123324649464046D047013081
:102F6C009DD00135E36803995B1AAB42F2DCEBE7C9
:102F7C00002504F11906F5E70F310008203100088F
:102F8C00884210B501EB020402D98442234607D8CB
:102F9C00431EA14208D011F8012B03F8012FF8E7CA
:102FAC00014602448A4200D110BD13F8014D02F8CB
:102FBC00014DF7E738B50023054D044608462B6054
:102FCC00FDF752FD431C02D12B6803B1236038BDC1
:102FDC0040030020034610B5C9B202449342184680
:102FEC0001D1002003E0047801338C42F6D110BDEE
:102FFC000A44914200F1FF3300D1704710B511F82B
:10300C00014B914203F8014FF9D110BD2DE9F0416C
:10301C00074614460D4621B91146BDE8F041FFF7AD
:10302C003BBC2AB9FFF7CEFB25462846BDE8F0810C
:10303C0000F01AF88442064602D8B4EB500FF4D8CC
:10304C0021463846FFF728FC804608B94546ECE790
:10305C00B4422246294628BF3246FFF7C9FF29460B
:10306C003846FFF7AFFBF1E751F8043C181F002B73
:10307C00BCBF0B58C0187047F8B500BFF8BC08BCF3
:10308C009E467047F8B500BFF8BC08BC9E4670471A
:10309C005B256C75206D735D205461736B202575F9
:1030AC002066696E69736865640D0A0043757272F7
:1030BC00656E742074696D657374616D703A20254A
:1030CC006C75206D730D0A000000000000000000FC
:1030DC0001020304060708090000000001020304B2
:1030EC0002030405060708090A0B0C0D0E0F10103D
:1030FC000102232D302B2000686C4C00656667455F
:10310C004647003031323334353637383941424353
:10311C004445460030313233343536373839616204
:08312C00636465660000000009
:0831340018D0FF7F010000002C
:04313C003101000855
:043140000D01000875
:10314400020000000400000008000000100000005D
:10315400200000004000000000127A00100000006F
:1031640001000000280000200000000008020020E8
:1031740070020020D80200200000000000000000BF
:10318400000000000000000000000000000000003B
:10319400000000000000000000000000000000002B
:1031A400000000000000000000000000000000001B
:0431B4000000000017
:0400000508000BD90B
:00000001FF
